{
  "fileName": "NewfiAdvisor.sol",
  "contractName": "NewfiAdvisor",
  "source": "// SPDX-License-Identifier: Apache-2.0\n\npragma solidity ^0.6.0;\n\nimport \"@openzeppelin/contracts-ethereum-package/contracts/token/ERC20/IERC20.sol\";\nimport \"@openzeppelin/contracts-ethereum-package/contracts/token/ERC20/SafeERC20.sol\";\nimport \"@openzeppelin/contracts-ethereum-package/contracts/utils/ReentrancyGuard.sol\";\nimport \"@openzeppelin/contracts-ethereum-package/contracts/Initializable.sol\";\nimport \"@openzeppelin/contracts-ethereum-package/contracts/access/Ownable.sol\";\nimport \"./proxy/StablePoolProxy.sol\";\nimport \"./proxy/VolatilePoolProxy.sol\";\nimport \"./utils/ProxyFactory.sol\";\nimport \"./utils/AggregatorInterface.sol\";\n\ncontract NewfiAdvisor is\n    Initializable,\n    ReentrancyGuardUpgradeSafe,\n    ProxyFactory,\n    Helper\n{\n    using SafeERC20 for IERC20;\n    using SafeMath for uint256;\n\n    event AdvisorOnBoarded(\n        address indexed advisor,\n        string name,\n        address indexed stablePool,\n        address indexed volatilePool,\n        address stablePoolToken,\n        address volatilePoolToken,\n        uint256 volatileProtocolStableCoinProportion,\n        uint256 volatileProtocolVolatileCoinProportion\n    );\n\n    event Investment(\n        address indexed investor,\n        uint256 _stablecoinAmount,\n        uint256 _volatileAmount,\n        address indexed _advisor\n    );\n\n    event ProtocolInvestment(\n        address indexed advisor,\n        uint256 mstableShare,\n        uint256 yearnShare\n    );\n\n    event Unwind(address indexed advisor, uint256 fess);\n\n    struct Advisor {\n        string name;\n        address stablePool;\n        address payable volatilePool;\n        address stablePoolToken;\n        address volatilePoolToken;\n        // diffrentiated for stable coins\n        uint256 volatileProtocolStableCoinProportion;\n        uint256 volatileProtocolVolatileCoinProportion;\n    }\n\n    struct Investor {\n        uint256 stablePoolLiquidity;\n        uint256 volatilePoolLiquidity;\n        address[] advisors;\n        bool doesExist;\n    }\n\n    mapping(address => Advisor) private advisorInfo;\n\n    mapping(address => Investor) private investorInfo;\n\n    address[] public advisors;\n\n    address[] public investors;\n\n    // Since it will be fixed\n    // in order to be used in the test cases\n    address\n        public constant massetAddress = 0xe2f2a5C287993345a840Db3B0845fbC70f5935a5;\n\n    address\n        public constant savingContract = 0xcf3F73290803Fc04425BEE135a4Caeb2BaB2C2A1;\n    // usdc/eth aggregator\n    address\n        internal constant fiatRef = 0x986b5E1e1755e3C2440e960477f25201B0a8bbD4;\n\n    /**\n        Onboards a new Advisor\n        @param _name Name of the Advisor.\n        // IMP NOTE => will the creation of advisor's pool tokens would be done already ? if yes then we can pass those addresses here also\n        // Advisor will define their stratergy as well with the _mstableInvestmentProportion and _yearnInvestmentProportion\n     */\n    function initialize(\n        string calldata _name,\n        address _stableProxyAddress,\n        address _volatileProxyAddress,\n        // for volatile pool since volatile pool will be used for yearn investment\n        uint256 _volatileProtocolStableCoinProportion,\n        uint256 _volatileProtocolVolatileCoinProportion\n    ) external payable {\n        require(\n            advisorInfo[msg.sender].stablePool == address(0),\n            \"Advisor exists\"\n        );\n        require(\n            _volatileProtocolStableCoinProportion != 0 ||\n                _volatileProtocolVolatileCoinProportion != 0,\n            \"Both Stable Proportions are 0\"\n        );\n        // msg.sender here would eb the advisor address\n        address stablePool = createProxyPool(_stableProxyAddress, msg.sender);\n        address volatilePool = createProxyPool(_volatileProxyAddress, msg.sender);\n\n        advisorInfo[msg.sender] = Advisor(\n            _name,\n            stablePool,\n            address(uint160(volatilePool)),\n            address(0),\n            address(0),\n            _volatileProtocolStableCoinProportion,\n            _volatileProtocolVolatileCoinProportion\n        );\n\n        advisors.push(msg.sender);\n        emit AdvisorOnBoarded(\n            msg.sender,\n            _name,\n            stablePool,\n            volatilePool,\n            address(0),\n            address(0),\n            _volatileProtocolStableCoinProportion,\n            _volatileProtocolVolatileCoinProportion\n        );\n    }\n\n    // IMP NOTE -> Right now these function will only give the pool value for the assets locked in mstable and yearn we can then get the total value in graph if needed we can tweak these functions to get the pool value of locked and unlocked assets direclty\n    function getStablePoolValue(address _advisor)\n        public\n        view\n        returns (uint256)\n    {\n        Advisor storage advisor = advisorInfo[_advisor];\n        address stablePool = advisor.stablePool;\n        uint256 mstablePoolInvestmentValue = SavingsContract(savingContract)\n            .creditBalances(stablePool)\n            .mul(SavingsContract(savingContract).exchangeRate());\n        // whitelisted vault addresses for now\n        uint256 yearnPoolInvestmentValue = YearnVault(getUSDCVault())\n            .balanceOf(advisor.volatilePool)\n            .mul(YearnVault(getUSDCVault()).getPricePerFullShare());\n        return mstablePoolInvestmentValue.add(yearnPoolInvestmentValue);\n    }\n\n    function getVolatilePoolValue(address _advisor)\n        public\n        view\n        returns (uint256)\n    {\n        Advisor storage advisor = advisorInfo[_advisor];\n        // whitelisted vault addresses for now\n        return\n            YearnVault(getETHVault()).balanceOf(advisor.volatilePool).mul(\n                YearnVault(getETHVault()).getPricePerFullShare()\n            );\n    }\n\n    /**\n     * @dev Returns the name of the advisor.\n     */\n    function advisorName(address account) public view returns (string memory) {\n        return advisorInfo[account].name;\n    }\n\n    /**\n     * @dev Returns the address of an advisors volatile pool.\n     */\n    function advisorVolatilePool(address account)\n        public\n        view\n        returns (address)\n    {\n        return advisorInfo[account].volatilePool;\n    }\n\n    /**\n     * @dev Returns an investors stable pool liquidity.\n     */\n    function investorStableLiquidity(address account)\n        public\n        view\n        returns (uint256)\n    {\n        return investorInfo[account].stablePoolLiquidity;\n    }\n\n    /**\n     * @dev Returns an investors volatile pool liquidity.\n     */\n    function investorVolatileLiquidity(address account)\n        public\n        view\n        returns (uint256)\n    {\n        return investorInfo[account].volatilePoolLiquidity;\n    }\n\n    /**\n     * @dev Returns advisor data for an investor.\n     */\n    function getAdvisors(address account)\n        public\n        view\n        returns (address[] memory)\n    {\n        return investorInfo[account].advisors;\n    }\n\n    /**\n     * @dev Add unique advisors to a list.\n     */\n    function addAdvisor(address account, address advisor) internal {\n        Investor storage investor = investorInfo[account];\n        bool exists = false;\n\n        for (uint i = 0; i < investor.advisors.length; i++) {\n            if (advisors[i] == advisor) {\n                exists = true;\n            }\n        }\n        if (!exists) {\n            investor.advisors.push(advisor);\n        }\n    }\n\n    /**\n        @param _proxy address of proxy.\n     */\n    function createProxyPool(address _proxy, address _advisor) internal returns (address) {\n    bytes memory _payload = abi.encodeWithSignature(\"initialize(address)\", _advisor);\n    return deployMinimal(_proxy, _payload);\n    }\n\n    // TODO: ADD TOKEN MINTING AND DISPERSAL LOGIC\n    /**\n        Investor deposits liquidity to advisor pools\n        @param _stablecoin address of stablecoin.\n        @param _totalInvest amount of stable coin.\n        @param _advisor address of selected advisor.\n        @param _stableProportion stable coin proportion used to invest in protocols.\n        @param _volatileProportion stable coin proportion used to invest in protocols.\n        // IMP NOTE => stablePoolLiquidity & volatilePoolLiquidity would be the bal of the pool tokens that the investor recieves currently just storing the deposited value\n     */\n    function invest(\n        address _stablecoin,\n        uint256 _totalInvest,\n        address _advisor,\n        uint256 _stableProportion,\n        uint256 _volatileProportion\n    ) external payable {\n        require(\n            _stableProportion + _volatileProportion == 100,\n            \"Need to invest 100% of funds\"\n        );\n        Advisor storage advisor = advisorInfo[_advisor];\n        IERC20 token = IERC20(_stablecoin);\n        uint256 stableInvest = (_totalInvest * _stableProportion) / 100;\n        uint256 volatileInvest = (_totalInvest * _volatileProportion) / 100;\n        // converting to wei 10**18\n        volatileInvest = volatileInvest.mul(10**12);\n        // getting the total amount in volatile pool\n        uint256 volatilePoolAmount = volatileInvest.add(msg.value);\n\n        if (stableInvest > 0) {\n            token.safeTransferFrom(\n                msg.sender,\n                advisor.stablePool,\n                stableInvest\n            );\n        }\n        if (volatileInvest > 0) {\n            token.safeTransferFrom(\n                msg.sender,\n                advisor.volatilePool,\n                volatileInvest\n            );\n        }\n        if (msg.value > 0) {\n            (bool success, ) = advisor.volatilePool.call{value: msg.value}(\"\");\n            require(success, \"Transfer failed.\");\n        }\n\n        Investor storage investor = investorInfo[msg.sender];\n        if (investor.doesExist) {\n            investor.stablePoolLiquidity = investor.stablePoolLiquidity.add(\n                stableInvest\n            );\n            investor.volatilePoolLiquidity = investor.volatilePoolLiquidity.add(\n                volatilePoolAmount\n            );\n            addAdvisor(msg.sender, _advisor);\n            // not including the pool token balance calculation at the moment\n        } else {\n            investorInfo[msg.sender] = Investor(\n                stableInvest,\n                volatilePoolAmount,\n                new address[](0),\n                true\n            );\n            addAdvisor(msg.sender, _advisor);\n        }\n\n        emit Investment(msg.sender, stableInvest, volatilePoolAmount, _advisor);\n    }\n\n    /**\n        Advisor Investing a particular investors pool liquidity\n        @param _stablecoin address of stablecoin to invest in mstable, will take usdc for hack.\n        // IMP NOTE => _mstableInvestmentAmount & _yearnInvestmentAmountsw will be based on the advisors mstable and yearn proportions\n     */\n    function protocolInvestment(address _stablecoin) external {\n        Advisor storage advisor = advisorInfo[msg.sender];\n        IERC20 token = IERC20(_stablecoin);\n        uint256 stableProtocolInvestmentAmount = token.balanceOf(\n            advisor.stablePool\n        );\n        uint256 volatileProtocolStableCoinInvestmentAmount = token.balanceOf(\n            advisor.volatilePool\n        );\n        // eth bal\n        uint256 volatileProtocolVolatileCoinInvestmentAmount = advisor\n            .volatilePool\n            .balance;\n        // calling the functions in proxy contract since amount is stored there so broken them into 2 different proxies\n        if (stableProtocolInvestmentAmount > 0) {\n            StablePoolProxy(advisor.stablePool).investMStable(\n                massetAddress,\n                _stablecoin,\n                stableProtocolInvestmentAmount,\n                savingContract\n            );\n        }\n        VolatilePoolProxy(advisor.volatilePool).investYearn(\n            volatileProtocolStableCoinInvestmentAmount,\n            volatileProtocolVolatileCoinInvestmentAmount\n        );\n        uint256 totalAmount = volatileProtocolStableCoinInvestmentAmount.add(\n            volatileProtocolVolatileCoinInvestmentAmount\n        );\n        emit ProtocolInvestment(\n            msg.sender,\n            stableProtocolInvestmentAmount,\n            totalAmount\n        );\n    }\n\n    /**\n        Investor Unwinding their position\n        @param _advisor Address of the advisor.\n        @param _stablecoin address of stablecoin to invest in mstable, will take usdc for hack.\n     */\n    function unwind(address _advisor, address _stablecoin) external {\n        Investor storage investor = investorInfo[msg.sender];\n        Advisor storage advisor = advisorInfo[_advisor];\n\n        uint256 advisorStablePoolFees = StablePoolProxy(advisor.stablePool)\n            .redeemAmount(\n            msg.sender,\n            _advisor,\n            massetAddress,\n            savingContract,\n            _stablecoin,\n            investor.stablePoolLiquidity,\n            advisor.stablePoolToken\n        );\n\n        uint256 advisorVolatilePoolFees = VolatilePoolProxy(\n            advisor\n                .volatilePool\n        )\n            .redeemAmount(\n            msg.sender,\n            _advisor,\n            _stablecoin,\n            investor.volatilePoolLiquidity,\n            advisor.volatilePoolToken,\n            advisor.volatileProtocolStableCoinProportion,\n            advisor.volatileProtocolVolatileCoinProportion\n        );\n        emit Unwind(\n            _advisor,\n            advisorStablePoolFees.add(advisorVolatilePoolFees)\n        );\n    }\n}\n",
  "sourcePath": "contracts/NewfiAdvisor.sol",
  "abi": [
    {
      "anonymous": false,
      "inputs": [
        {
          "indexed": true,
          "internalType": "address",
          "name": "advisor",
          "type": "address"
        },
        {
          "indexed": false,
          "internalType": "string",
          "name": "name",
          "type": "string"
        },
        {
          "indexed": true,
          "internalType": "address",
          "name": "stablePool",
          "type": "address"
        },
        {
          "indexed": true,
          "internalType": "address",
          "name": "volatilePool",
          "type": "address"
        },
        {
          "indexed": false,
          "internalType": "address",
          "name": "stablePoolToken",
          "type": "address"
        },
        {
          "indexed": false,
          "internalType": "address",
          "name": "volatilePoolToken",
          "type": "address"
        },
        {
          "indexed": false,
          "internalType": "uint256",
          "name": "volatileProtocolStableCoinProportion",
          "type": "uint256"
        },
        {
          "indexed": false,
          "internalType": "uint256",
          "name": "volatileProtocolVolatileCoinProportion",
          "type": "uint256"
        }
      ],
      "name": "AdvisorOnBoarded",
      "type": "event"
    },
    {
      "anonymous": false,
      "inputs": [
        {
          "indexed": true,
          "internalType": "address",
          "name": "investor",
          "type": "address"
        },
        {
          "indexed": false,
          "internalType": "uint256",
          "name": "_stablecoinAmount",
          "type": "uint256"
        },
        {
          "indexed": false,
          "internalType": "uint256",
          "name": "_volatileAmount",
          "type": "uint256"
        },
        {
          "indexed": true,
          "internalType": "address",
          "name": "_advisor",
          "type": "address"
        }
      ],
      "name": "Investment",
      "type": "event"
    },
    {
      "anonymous": false,
      "inputs": [
        {
          "indexed": true,
          "internalType": "address",
          "name": "advisor",
          "type": "address"
        },
        {
          "indexed": false,
          "internalType": "uint256",
          "name": "mstableShare",
          "type": "uint256"
        },
        {
          "indexed": false,
          "internalType": "uint256",
          "name": "yearnShare",
          "type": "uint256"
        }
      ],
      "name": "ProtocolInvestment",
      "type": "event"
    },
    {
      "anonymous": false,
      "inputs": [
        {
          "indexed": false,
          "internalType": "address",
          "name": "proxy",
          "type": "address"
        }
      ],
      "name": "ProxyCreated",
      "type": "event"
    },
    {
      "anonymous": false,
      "inputs": [
        {
          "indexed": true,
          "internalType": "address",
          "name": "advisor",
          "type": "address"
        },
        {
          "indexed": false,
          "internalType": "uint256",
          "name": "fess",
          "type": "uint256"
        }
      ],
      "name": "Unwind",
      "type": "event"
    },
    {
      "inputs": [
        {
          "internalType": "address",
          "name": "account",
          "type": "address"
        }
      ],
      "name": "advisorName",
      "outputs": [
        {
          "internalType": "string",
          "name": "",
          "type": "string"
        }
      ],
      "stateMutability": "view",
      "type": "function"
    },
    {
      "inputs": [
        {
          "internalType": "address",
          "name": "account",
          "type": "address"
        }
      ],
      "name": "advisorVolatilePool",
      "outputs": [
        {
          "internalType": "address",
          "name": "",
          "type": "address"
        }
      ],
      "stateMutability": "view",
      "type": "function"
    },
    {
      "inputs": [
        {
          "internalType": "uint256",
          "name": "",
          "type": "uint256"
        }
      ],
      "name": "advisors",
      "outputs": [
        {
          "internalType": "address",
          "name": "",
          "type": "address"
        }
      ],
      "stateMutability": "view",
      "type": "function"
    },
    {
      "inputs": [
        {
          "internalType": "address",
          "name": "_logic",
          "type": "address"
        },
        {
          "internalType": "bytes",
          "name": "_data",
          "type": "bytes"
        }
      ],
      "name": "deployMinimal",
      "outputs": [
        {
          "internalType": "address",
          "name": "proxy",
          "type": "address"
        }
      ],
      "stateMutability": "nonpayable",
      "type": "function"
    },
    {
      "inputs": [
        {
          "internalType": "address",
          "name": "account",
          "type": "address"
        }
      ],
      "name": "getAdvisors",
      "outputs": [
        {
          "internalType": "address[]",
          "name": "",
          "type": "address[]"
        }
      ],
      "stateMutability": "view",
      "type": "function"
    },
    {
      "inputs": [],
      "name": "getETHVault",
      "outputs": [
        {
          "internalType": "address",
          "name": "ethVault",
          "type": "address"
        }
      ],
      "stateMutability": "pure",
      "type": "function"
    },
    {
      "inputs": [
        {
          "internalType": "address",
          "name": "_advisor",
          "type": "address"
        }
      ],
      "name": "getStablePoolValue",
      "outputs": [
        {
          "internalType": "uint256",
          "name": "",
          "type": "uint256"
        }
      ],
      "stateMutability": "view",
      "type": "function"
    },
    {
      "inputs": [],
      "name": "getUSDCVault",
      "outputs": [
        {
          "internalType": "address",
          "name": "usdcVault",
          "type": "address"
        }
      ],
      "stateMutability": "pure",
      "type": "function"
    },
    {
      "inputs": [
        {
          "internalType": "address",
          "name": "_advisor",
          "type": "address"
        }
      ],
      "name": "getVolatilePoolValue",
      "outputs": [
        {
          "internalType": "uint256",
          "name": "",
          "type": "uint256"
        }
      ],
      "stateMutability": "view",
      "type": "function"
    },
    {
      "inputs": [
        {
          "internalType": "string",
          "name": "_name",
          "type": "string"
        },
        {
          "internalType": "address",
          "name": "_stableProxyAddress",
          "type": "address"
        },
        {
          "internalType": "address",
          "name": "_volatileProxyAddress",
          "type": "address"
        },
        {
          "internalType": "uint256",
          "name": "_volatileProtocolStableCoinProportion",
          "type": "uint256"
        },
        {
          "internalType": "uint256",
          "name": "_volatileProtocolVolatileCoinProportion",
          "type": "uint256"
        }
      ],
      "name": "initialize",
      "outputs": [],
      "stateMutability": "payable",
      "type": "function"
    },
    {
      "inputs": [
        {
          "internalType": "address",
          "name": "_stablecoin",
          "type": "address"
        },
        {
          "internalType": "uint256",
          "name": "_totalInvest",
          "type": "uint256"
        },
        {
          "internalType": "address",
          "name": "_advisor",
          "type": "address"
        },
        {
          "internalType": "uint256",
          "name": "_stableProportion",
          "type": "uint256"
        },
        {
          "internalType": "uint256",
          "name": "_volatileProportion",
          "type": "uint256"
        }
      ],
      "name": "invest",
      "outputs": [],
      "stateMutability": "payable",
      "type": "function"
    },
    {
      "inputs": [
        {
          "internalType": "address",
          "name": "account",
          "type": "address"
        }
      ],
      "name": "investorStableLiquidity",
      "outputs": [
        {
          "internalType": "uint256",
          "name": "",
          "type": "uint256"
        }
      ],
      "stateMutability": "view",
      "type": "function"
    },
    {
      "inputs": [
        {
          "internalType": "address",
          "name": "account",
          "type": "address"
        }
      ],
      "name": "investorVolatileLiquidity",
      "outputs": [
        {
          "internalType": "uint256",
          "name": "",
          "type": "uint256"
        }
      ],
      "stateMutability": "view",
      "type": "function"
    },
    {
      "inputs": [
        {
          "internalType": "uint256",
          "name": "",
          "type": "uint256"
        }
      ],
      "name": "investors",
      "outputs": [
        {
          "internalType": "address",
          "name": "",
          "type": "address"
        }
      ],
      "stateMutability": "view",
      "type": "function"
    },
    {
      "inputs": [],
      "name": "massetAddress",
      "outputs": [
        {
          "internalType": "address",
          "name": "",
          "type": "address"
        }
      ],
      "stateMutability": "view",
      "type": "function"
    },
    {
      "inputs": [
        {
          "internalType": "address",
          "name": "_stablecoin",
          "type": "address"
        }
      ],
      "name": "protocolInvestment",
      "outputs": [],
      "stateMutability": "nonpayable",
      "type": "function"
    },
    {
      "inputs": [],
      "name": "savingContract",
      "outputs": [
        {
          "internalType": "address",
          "name": "",
          "type": "address"
        }
      ],
      "stateMutability": "view",
      "type": "function"
    },
    {
      "inputs": [
        {
          "internalType": "address",
          "name": "_advisor",
          "type": "address"
        },
        {
          "internalType": "address",
          "name": "_stablecoin",
          "type": "address"
        }
      ],
      "name": "unwind",
      "outputs": [],
      "stateMutability": "nonpayable",
      "type": "function"
    }
  ],
  "bytecode": "0x608060405234801561001057600080fd5b50612f12806100206000396000f3fe6080604052600436106101095760003560e01c80638b4b307b11610095578063aa30122711610064578063aa3012271461062f578063b2f36b5b14610670578063b3eeb5e21461073d578063d42f5f3c1461084f578063f8102e0d146108b457610109565b80638b4b307b146104cd5780639651859614610548578063a268205914610589578063a5858941146105ee57610109565b80633f994bd1116100dc5780633f994bd1146102dc5780633feb5f2b1461034157806340d6dd8e146103a65780634596ca11146103f75780634c3266141461046857610109565b8063025881521461010e57806304965c681461019057806304e15c0a146101f557806329c5515014610236575b600080fd5b61018e600480360360a081101561012457600080fd5b81019080803573ffffffffffffffffffffffffffffffffffffffff16906020019092919080359060200190929190803573ffffffffffffffffffffffffffffffffffffffff169060200190929190803590602001909291908035906020019092919050505061097e565b005b34801561019c57600080fd5b506101df600480360360208110156101b357600080fd5b81019080803573ffffffffffffffffffffffffffffffffffffffff169060200190929190505050610e7c565b6040518082815260200191505060405180910390f35b34801561020157600080fd5b5061020a6111d1565b604051808273ffffffffffffffffffffffffffffffffffffffff16815260200191505060405180910390f35b34801561024257600080fd5b506102856004803603602081101561025957600080fd5b81019080803573ffffffffffffffffffffffffffffffffffffffff1690602001909291905050506111ed565b6040518080602001828103825283818151815260200191508051906020019060200280838360005b838110156102c85780820151818401526020810190506102ad565b505050509050019250505060405180910390f35b3480156102e857600080fd5b5061032b600480360360208110156102ff57600080fd5b81019080803573ffffffffffffffffffffffffffffffffffffffff1690602001909291905050506112bd565b6040518082815260200191505060405180910390f35b34801561034d57600080fd5b5061037a6004803603602081101561036457600080fd5b810190808035906020019092919050505061146f565b604051808273ffffffffffffffffffffffffffffffffffffffff16815260200191505060405180910390f35b3480156103b257600080fd5b506103f5600480360360208110156103c957600080fd5b81019080803573ffffffffffffffffffffffffffffffffffffffff1690602001909291905050506114ab565b005b34801561040357600080fd5b506104666004803603604081101561041a57600080fd5b81019080803573ffffffffffffffffffffffffffffffffffffffff169060200190929190803573ffffffffffffffffffffffffffffffffffffffff1690602001909291905050506118ef565b005b34801561047457600080fd5b506104b76004803603602081101561048b57600080fd5b81019080803573ffffffffffffffffffffffffffffffffffffffff169060200190929190505050611d05565b6040518082815260200191505060405180910390f35b3480156104d957600080fd5b5061051c600480360360208110156104f057600080fd5b81019080803573ffffffffffffffffffffffffffffffffffffffff169060200190929190505050611d51565b604051808273ffffffffffffffffffffffffffffffffffffffff16815260200191505060405180910390f35b34801561055457600080fd5b5061055d611dbd565b604051808273ffffffffffffffffffffffffffffffffffffffff16815260200191505060405180910390f35b34801561059557600080fd5b506105d8600480360360208110156105ac57600080fd5b81019080803573ffffffffffffffffffffffffffffffffffffffff169060200190929190505050611dd5565b6040518082815260200191505060405180910390f35b3480156105fa57600080fd5b50610603611e21565b604051808273ffffffffffffffffffffffffffffffffffffffff16815260200191505060405180910390f35b34801561063b57600080fd5b50610644611e3d565b604051808273ffffffffffffffffffffffffffffffffffffffff16815260200191505060405180910390f35b61073b600480360360a081101561068657600080fd5b81019080803590602001906401000000008111156106a357600080fd5b8201836020820111156106b557600080fd5b803590602001918460018302840111640100000000831117156106d757600080fd5b9091929391929390803573ffffffffffffffffffffffffffffffffffffffff169060200190929190803573ffffffffffffffffffffffffffffffffffffffff1690602001909291908035906020019092919080359060200190929190505050611e55565b005b34801561074957600080fd5b506108236004803603604081101561076057600080fd5b81019080803573ffffffffffffffffffffffffffffffffffffffff1690602001909291908035906020019064010000000081111561079d57600080fd5b8201836020820111156107af57600080fd5b803590602001918460018302840111640100000000831117156107d157600080fd5b91908080601f016020809104026020016040519081016040528093929190818152602001838380828437600081840152601f19601f8201169050808301925050505050505091929192905050506123ba565b604051808273ffffffffffffffffffffffffffffffffffffffff16815260200191505060405180910390f35b34801561085b57600080fd5b506108886004803603602081101561087257600080fd5b81019080803590602001909291905050506125a8565b604051808273ffffffffffffffffffffffffffffffffffffffff16815260200191505060405180910390f35b3480156108c057600080fd5b50610903600480360360208110156108d757600080fd5b81019080803573ffffffffffffffffffffffffffffffffffffffff1690602001909291905050506125e4565b6040518080602001828103825283818151815260200191508051906020019080838360005b83811015610943578082015181840152602081019050610928565b50505050905090810190601f1680156109705780820380516001836020036101000a031916815260200191505b509250505060405180910390f35b6064818301146109f6576040517f08c379a000000000000000000000000000000000000000000000000000000000815260040180806020018281038252601c8152602001807f4e65656420746f20696e766573742031303025206f662066756e64730000000081525060200191505060405180910390fd5b6000606560008573ffffffffffffffffffffffffffffffffffffffff1673ffffffffffffffffffffffffffffffffffffffff168152602001908152602001600020905060008690506000606485880281610a4c57fe5b0490506000606485890281610a5d57fe5b049050610a7864e8d4a51000826126c890919063ffffffff16565b90506000610a8f348361274e90919063ffffffff16565b90506000831115610aec57610aeb338660010160009054906101000a900473ffffffffffffffffffffffffffffffffffffffff16858773ffffffffffffffffffffffffffffffffffffffff166127d6909392919063ffffffff16565b5b6000821115610b4757610b46338660020160009054906101000a900473ffffffffffffffffffffffffffffffffffffffff16848773ffffffffffffffffffffffffffffffffffffffff166127d6909392919063ffffffff16565b5b6000341115610c525760008560020160009054906101000a900473ffffffffffffffffffffffffffffffffffffffff1673ffffffffffffffffffffffffffffffffffffffff163460405180600001905060006040518083038185875af1925050503d8060008114610bd4576040519150601f19603f3d011682016040523d82523d6000602084013e610bd9565b606091505b5050905080610c50576040517f08c379a00000000000000000000000000000000000000000000000000000000081526004018080602001828103825260108152602001807f5472616e73666572206661696c65642e0000000000000000000000000000000081525060200191505060405180910390fd5b505b6000606660003373ffffffffffffffffffffffffffffffffffffffff1673ffffffffffffffffffffffffffffffffffffffff16815260200190815260200160002090508060030160009054906101000a900460ff1615610cf957610cc384826000015461274e90919063ffffffff16565b8160000181905550610ce282826001015461274e90919063ffffffff16565b8160010181905550610cf4338a612897565b610e02565b6040518060800160405280858152602001838152602001600067ffffffffffffffff81118015610d2857600080fd5b50604051908082528060200260200182016040528015610d575781602001602082028036833780820191505090505b50815260200160011515815250606660003373ffffffffffffffffffffffffffffffffffffffff1673ffffffffffffffffffffffffffffffffffffffff16815260200190815260200160002060008201518160000155602082015181600101556040820151816002019080519060200190610dd3929190612d2f565b5060608201518160030160006101000a81548160ff021916908315150217905550905050610e01338a612897565b5b8873ffffffffffffffffffffffffffffffffffffffff163373ffffffffffffffffffffffffffffffffffffffff167f563e3da714f76de7a25889aa15845056bf0182b18696a2410571a6e5b06c39748685604051808381526020018281526020019250505060405180910390a35050505050505050505050565b600080606560008473ffffffffffffffffffffffffffffffffffffffff1673ffffffffffffffffffffffffffffffffffffffff168152602001908152602001600020905060008160010160009054906101000a900473ffffffffffffffffffffffffffffffffffffffff169050600061104773cf3f73290803fc04425bee135a4caeb2bab2c2a173ffffffffffffffffffffffffffffffffffffffff16633ba0b9a96040518163ffffffff1660e01b815260040160206040518083038186803b158015610f4857600080fd5b505afa158015610f5c573d6000803e3d6000fd5b505050506040513d6020811015610f7257600080fd5b810190808051906020019092919050505073cf3f73290803fc04425bee135a4caeb2bab2c2a173ffffffffffffffffffffffffffffffffffffffff16636009a2d8856040518263ffffffff1660e01b8152600401808273ffffffffffffffffffffffffffffffffffffffff16815260200191505060206040518083038186803b158015610ffe57600080fd5b505afa158015611012573d6000803e3d6000fd5b505050506040513d602081101561102857600080fd5b81019080805190602001909291905050506126c890919063ffffffff16565b905060006111b16110566111d1565b73ffffffffffffffffffffffffffffffffffffffff166377c7b8fc6040518163ffffffff1660e01b815260040160206040518083038186803b15801561109b57600080fd5b505afa1580156110af573d6000803e3d6000fd5b505050506040513d60208110156110c557600080fd5b81019080805190602001909291905050506110de6111d1565b73ffffffffffffffffffffffffffffffffffffffff166370a082318760020160009054906101000a900473ffffffffffffffffffffffffffffffffffffffff166040518263ffffffff1660e01b8152600401808273ffffffffffffffffffffffffffffffffffffffff16815260200191505060206040518083038186803b15801561116857600080fd5b505afa15801561117c573d6000803e3d6000fd5b505050506040513d602081101561119257600080fd5b81019080805190602001909291905050506126c890919063ffffffff16565b90506111c6818361274e90919063ffffffff16565b945050505050919050565b600073597ad1e0c13bfe8025993d9e79c69e1c0233522e905090565b6060606660008373ffffffffffffffffffffffffffffffffffffffff1673ffffffffffffffffffffffffffffffffffffffff1681526020019081526020016000206002018054806020026020016040519081016040528092919081815260200182805480156112b157602002820191906000526020600020905b8160009054906101000a900473ffffffffffffffffffffffffffffffffffffffff1673ffffffffffffffffffffffffffffffffffffffff1681526020019060010190808311611267575b50505050509050919050565b600080606560008473ffffffffffffffffffffffffffffffffffffffff1673ffffffffffffffffffffffffffffffffffffffff168152602001908152602001600020905061146761130c611e21565b73ffffffffffffffffffffffffffffffffffffffff166377c7b8fc6040518163ffffffff1660e01b815260040160206040518083038186803b15801561135157600080fd5b505afa158015611365573d6000803e3d6000fd5b505050506040513d602081101561137b57600080fd5b8101908080519060200190929190505050611394611e21565b73ffffffffffffffffffffffffffffffffffffffff166370a082318460020160009054906101000a900473ffffffffffffffffffffffffffffffffffffffff166040518263ffffffff1660e01b8152600401808273ffffffffffffffffffffffffffffffffffffffff16815260200191505060206040518083038186803b15801561141e57600080fd5b505afa158015611432573d6000803e3d6000fd5b505050506040513d602081101561144857600080fd5b81019080805190602001909291905050506126c890919063ffffffff16565b915050919050565b6068818154811061147c57fe5b906000526020600020016000915054906101000a900473ffffffffffffffffffffffffffffffffffffffff1681565b6000606560003373ffffffffffffffffffffffffffffffffffffffff1673ffffffffffffffffffffffffffffffffffffffff1681526020019081526020016000209050600082905060008173ffffffffffffffffffffffffffffffffffffffff166370a082318460010160009054906101000a900473ffffffffffffffffffffffffffffffffffffffff166040518263ffffffff1660e01b8152600401808273ffffffffffffffffffffffffffffffffffffffff16815260200191505060206040518083038186803b15801561158057600080fd5b505afa158015611594573d6000803e3d6000fd5b505050506040513d60208110156115aa57600080fd5b8101908080519060200190929190505050905060008273ffffffffffffffffffffffffffffffffffffffff166370a082318560020160009054906101000a900473ffffffffffffffffffffffffffffffffffffffff166040518263ffffffff1660e01b8152600401808273ffffffffffffffffffffffffffffffffffffffff16815260200191505060206040518083038186803b15801561164a57600080fd5b505afa15801561165e573d6000803e3d6000fd5b505050506040513d602081101561167457600080fd5b8101908080519060200190929190505050905060008460020160009054906101000a900473ffffffffffffffffffffffffffffffffffffffff1673ffffffffffffffffffffffffffffffffffffffff1631905060008311156117e2578460010160009054906101000a900473ffffffffffffffffffffffffffffffffffffffff1673ffffffffffffffffffffffffffffffffffffffff16635a4be73673e2f2a5c287993345a840db3b0845fbc70f5935a5888673cf3f73290803fc04425bee135a4caeb2bab2c2a16040518563ffffffff1660e01b8152600401808573ffffffffffffffffffffffffffffffffffffffff1681526020018473ffffffffffffffffffffffffffffffffffffffff1681526020018381526020018273ffffffffffffffffffffffffffffffffffffffff168152602001945050505050600060405180830381600087803b1580156117c957600080fd5b505af11580156117dd573d6000803e3d6000fd5b505050505b8460020160009054906101000a900473ffffffffffffffffffffffffffffffffffffffff1673ffffffffffffffffffffffffffffffffffffffff1663d710d4c183836040518363ffffffff1660e01b81526004018083815260200182815260200192505050600060405180830381600087803b15801561186157600080fd5b505af1158015611875573d6000803e3d6000fd5b50505050600061188e828461274e90919063ffffffff16565b90503373ffffffffffffffffffffffffffffffffffffffff167f42acb0dce1c64baf48aa8f93bcb09ce31e1102fdc501c884d50d35d5e61517988583604051808381526020018281526020019250505060405180910390a250505050505050565b6000606660003373ffffffffffffffffffffffffffffffffffffffff1673ffffffffffffffffffffffffffffffffffffffff16815260200190815260200160002090506000606560008573ffffffffffffffffffffffffffffffffffffffff1673ffffffffffffffffffffffffffffffffffffffff168152602001908152602001600020905060008160010160009054906101000a900473ffffffffffffffffffffffffffffffffffffffff1673ffffffffffffffffffffffffffffffffffffffff16638a5c783e338773e2f2a5c287993345a840db3b0845fbc70f5935a573cf3f73290803fc04425bee135a4caeb2bab2c2a18989600001548960030160009054906101000a900473ffffffffffffffffffffffffffffffffffffffff166040518863ffffffff1660e01b8152600401808873ffffffffffffffffffffffffffffffffffffffff1681526020018773ffffffffffffffffffffffffffffffffffffffff1681526020018673ffffffffffffffffffffffffffffffffffffffff1681526020018573ffffffffffffffffffffffffffffffffffffffff1681526020018473ffffffffffffffffffffffffffffffffffffffff1681526020018381526020018273ffffffffffffffffffffffffffffffffffffffff168152602001975050505050505050602060405180830381600087803b158015611af257600080fd5b505af1158015611b06573d6000803e3d6000fd5b505050506040513d6020811015611b1c57600080fd5b8101908080519060200190929190505050905060008260020160009054906101000a900473ffffffffffffffffffffffffffffffffffffffff1673ffffffffffffffffffffffffffffffffffffffff16637f6f750933888888600101548860040160009054906101000a900473ffffffffffffffffffffffffffffffffffffffff1689600501548a600601546040518863ffffffff1660e01b8152600401808873ffffffffffffffffffffffffffffffffffffffff1681526020018773ffffffffffffffffffffffffffffffffffffffff1681526020018673ffffffffffffffffffffffffffffffffffffffff1681526020018581526020018473ffffffffffffffffffffffffffffffffffffffff168152602001838152602001828152602001975050505050505050602060405180830381600087803b158015611c6057600080fd5b505af1158015611c74573d6000803e3d6000fd5b505050506040513d6020811015611c8a57600080fd5b810190808051906020019092919050505090508573ffffffffffffffffffffffffffffffffffffffff167fe5e7e84b80a4f59cef45be34b1dd281ae46381f37a73ef2b77cc93b7a0fd2a35611ce8838561274e90919063ffffffff16565b6040518082815260200191505060405180910390a2505050505050565b6000606660008373ffffffffffffffffffffffffffffffffffffffff1673ffffffffffffffffffffffffffffffffffffffff168152602001908152602001600020600101549050919050565b6000606560008373ffffffffffffffffffffffffffffffffffffffff1673ffffffffffffffffffffffffffffffffffffffff16815260200190815260200160002060020160009054906101000a900473ffffffffffffffffffffffffffffffffffffffff169050919050565b73cf3f73290803fc04425bee135a4caeb2bab2c2a181565b6000606660008373ffffffffffffffffffffffffffffffffffffffff1673ffffffffffffffffffffffffffffffffffffffff168152602001908152602001600020600001549050919050565b600073e1237aa7f535b0cc33fd973d66cbf830354d16c7905090565b73e2f2a5c287993345a840db3b0845fbc70f5935a581565b600073ffffffffffffffffffffffffffffffffffffffff16606560003373ffffffffffffffffffffffffffffffffffffffff1673ffffffffffffffffffffffffffffffffffffffff16815260200190815260200160002060010160009054906101000a900473ffffffffffffffffffffffffffffffffffffffff1673ffffffffffffffffffffffffffffffffffffffff1614611f59576040517f08c379a000000000000000000000000000000000000000000000000000000000815260040180806020018281038252600e8152602001807f41647669736f722065786973747300000000000000000000000000000000000081525060200191505060405180910390fd5b600082141580611f6a575060008114155b611fdc576040517f08c379a000000000000000000000000000000000000000000000000000000000815260040180806020018281038252601d8152602001807f426f746820537461626c652050726f706f7274696f6e7320617265203000000081525060200191505060405180910390fd5b6000611fe885336129dc565b90506000611ff685336129dc565b90506040518060e0016040528089898080601f016020809104026020016040519081016040528093929190818152602001838380828437600081840152601f19601f8201169050808301925050505050505081526020018373ffffffffffffffffffffffffffffffffffffffff1681526020018273ffffffffffffffffffffffffffffffffffffffff168152602001600073ffffffffffffffffffffffffffffffffffffffff168152602001600073ffffffffffffffffffffffffffffffffffffffff16815260200185815260200184815250606560003373ffffffffffffffffffffffffffffffffffffffff1673ffffffffffffffffffffffffffffffffffffffff1681526020019081526020016000206000820151816000019080519060200190612124929190612db9565b5060208201518160010160006101000a81548173ffffffffffffffffffffffffffffffffffffffff021916908373ffffffffffffffffffffffffffffffffffffffff16021790555060408201518160020160006101000a81548173ffffffffffffffffffffffffffffffffffffffff021916908373ffffffffffffffffffffffffffffffffffffffff16021790555060608201518160030160006101000a81548173ffffffffffffffffffffffffffffffffffffffff021916908373ffffffffffffffffffffffffffffffffffffffff16021790555060808201518160040160006101000a81548173ffffffffffffffffffffffffffffffffffffffff021916908373ffffffffffffffffffffffffffffffffffffffff16021790555060a0820151816005015560c082015181600601559050506067339080600181540180825580915050600190039060005260206000200160009091909190916101000a81548173ffffffffffffffffffffffffffffffffffffffff021916908373ffffffffffffffffffffffffffffffffffffffff1602179055508073ffffffffffffffffffffffffffffffffffffffff168273ffffffffffffffffffffffffffffffffffffffff163373ffffffffffffffffffffffffffffffffffffffff167f2dba88a1fbbae07d69aed791ea70838a2c0c4f6249b6b16af85ef61963c3d12e8b8b6000808b8b60405180806020018673ffffffffffffffffffffffffffffffffffffffff1681526020018573ffffffffffffffffffffffffffffffffffffffff1681526020018481526020018381526020018281038252888882818152602001925080828437600081840152601f19601f82011690508083019250505097505050505050505060405180910390a45050505050505050565b6000808360601b90506040517f3d602d80600a3d3981f3363d3d373d3d3d363d7300000000000000000000000081528160148201527f5af43d82803e903d91602b57fd5bf3000000000000000000000000000000000060288201526037816000f09250507efffc2da0b561cae30d9826d37709e9421c4725faebc226cbbb7ef5fc5e734982604051808273ffffffffffffffffffffffffffffffffffffffff16815260200191505060405180910390a16000835111156125a15760008273ffffffffffffffffffffffffffffffffffffffff16846040518082805190602001908083835b602083106124c1578051825260208201915060208101905060208303925061249e565b6001836020036101000a0380198251168184511680821785525050505050509050019150506000604051808303816000865af19150503d8060008114612523576040519150601f19603f3d011682016040523d82523d6000602084013e612528565b606091505b505090508061259f576040517f08c379a00000000000000000000000000000000000000000000000000000000081526004018080602001828103825260178152602001807f636f6e7374727563746f722063616c6c206661696c656400000000000000000081525060200191505060405180910390fd5b505b5092915050565b606781815481106125b557fe5b906000526020600020016000915054906101000a900473ffffffffffffffffffffffffffffffffffffffff1681565b6060606560008373ffffffffffffffffffffffffffffffffffffffff1673ffffffffffffffffffffffffffffffffffffffff1681526020019081526020016000206000018054600181600116156101000203166002900480601f0160208091040260200160405190810160405280929190818152602001828054600181600116156101000203166002900480156126bc5780601f10612691576101008083540402835291602001916126bc565b820191906000526020600020905b81548152906001019060200180831161269f57829003601f168201915b50505050509050919050565b6000808314156126db5760009050612748565b60008284029050828482816126ec57fe5b0414612743576040517f08c379a0000000000000000000000000000000000000000000000000000000008152600401808060200182810382526021815260200180612e926021913960400191505060405180910390fd5b809150505b92915050565b6000808284019050838110156127cc576040517f08c379a000000000000000000000000000000000000000000000000000000000815260040180806020018281038252601b8152602001807f536166654d6174683a206164646974696f6e206f766572666c6f77000000000081525060200191505060405180910390fd5b8091505092915050565b612891846323b872dd60e01b858585604051602401808473ffffffffffffffffffffffffffffffffffffffff1681526020018373ffffffffffffffffffffffffffffffffffffffff1681526020018281526020019350505050604051602081830303815290604052907bffffffffffffffffffffffffffffffffffffffffffffffffffffffff19166020820180517bffffffffffffffffffffffffffffffffffffffffffffffffffffffff8381831617835250505050612a99565b50505050565b6000606660008473ffffffffffffffffffffffffffffffffffffffff1673ffffffffffffffffffffffffffffffffffffffff16815260200190815260200160002090506000805b826002018054905081101561296a578373ffffffffffffffffffffffffffffffffffffffff166067828154811061291157fe5b9060005260206000200160009054906101000a900473ffffffffffffffffffffffffffffffffffffffff1673ffffffffffffffffffffffffffffffffffffffff16141561295d57600191505b80806001019150506128de565b50806129d65781600201839080600181540180825580915050600190039060005260206000200160009091909190916101000a81548173ffffffffffffffffffffffffffffffffffffffff021916908373ffffffffffffffffffffffffffffffffffffffff1602179055505b50505050565b6000606082604051602401808273ffffffffffffffffffffffffffffffffffffffff1681526020019150506040516020818303038152906040527fc4d66de8000000000000000000000000000000000000000000000000000000007bffffffffffffffffffffffffffffffffffffffffffffffffffffffff19166020820180517bffffffffffffffffffffffffffffffffffffffffffffffffffffffff83818316178352505050509050612a9084826123ba565b91505092915050565b612ab88273ffffffffffffffffffffffffffffffffffffffff16612ce4565b612b2a576040517f08c379a000000000000000000000000000000000000000000000000000000000815260040180806020018281038252601f8152602001807f5361666545524332303a2063616c6c20746f206e6f6e2d636f6e74726163740081525060200191505060405180910390fd5b600060608373ffffffffffffffffffffffffffffffffffffffff16836040518082805190602001908083835b60208310612b795780518252602082019150602081019050602083039250612b56565b6001836020036101000a0380198251168184511680821785525050505050509050019150506000604051808303816000865af19150503d8060008114612bdb576040519150601f19603f3d011682016040523d82523d6000602084013e612be0565b606091505b509150915081612c58576040517f08c379a00000000000000000000000000000000000000000000000000000000081526004018080602001828103825260208152602001807f5361666545524332303a206c6f772d6c6576656c2063616c6c206661696c656481525060200191505060405180910390fd5b600081511115612cde57808060200190516020811015612c7757600080fd5b8101908080519060200190929190505050612cdd576040517f08c379a000000000000000000000000000000000000000000000000000000000815260040180806020018281038252602a815260200180612eb3602a913960400191505060405180910390fd5b5b50505050565b60008060007fc5d2460186f7233c927e7db2dcc703c0e500b653ca82273b7bfad8045d85a47060001b9050833f9150808214158015612d2657506000801b8214155b92505050919050565b828054828255906000526020600020908101928215612da8579160200282015b82811115612da75782518260006101000a81548173ffffffffffffffffffffffffffffffffffffffff021916908373ffffffffffffffffffffffffffffffffffffffff16021790555091602001919060010190612d4f565b5b509050612db59190612e39565b5090565b828054600181600116156101000203166002900490600052602060002090601f016020900481019282601f10612dfa57805160ff1916838001178555612e28565b82800160010185558215612e28579182015b82811115612e27578251825591602001919060010190612e0c565b5b509050612e359190612e74565b5090565b5b80821115612e7057600081816101000a81549073ffffffffffffffffffffffffffffffffffffffff021916905550600101612e3a565b5090565b5b80821115612e8d576000816000905550600101612e75565b509056fe536166654d6174683a206d756c7469706c69636174696f6e206f766572666c6f775361666545524332303a204552433230206f7065726174696f6e20646964206e6f742073756363656564a2646970667358221220a0faccbba36d1cae12e7c94d0b139d23df9081f2ec8cd8a826ab89abe7707d4f64736f6c634300060c0033",
  "compiler": {
    "name": "solc",
    "version": "0.6.12+commit.27d51765.Emscripten.clang",
    "optimizer": {
      "enabled": false,
      "runs": 200
    },
    "evmVersion": "petersburg"
  }
}