{
  "fileName": "NewfiAdvisor.sol",
  "contractName": "NewfiAdvisor",
  "source": "// SPDX-License-Identifier: Apache-2.0\n\npragma solidity ^0.6.0;\n\nimport '@openzeppelin/contracts-ethereum-package/contracts/token/ERC20/IERC20.sol';\nimport '@openzeppelin/contracts-ethereum-package/contracts/token/ERC20/SafeERC20.sol';\nimport '@openzeppelin/contracts-ethereum-package/contracts/utils/ReentrancyGuard.sol';\nimport '@openzeppelin/contracts-ethereum-package/contracts/access/Ownable.sol';\nimport './proxy/StablePoolProxy.sol';\nimport './proxy/VolatilePoolProxy.sol';\nimport './utils/ProxyFactory.sol';\nimport './utils/AggregatorInterface.sol';\nimport './NewfiToken.sol';\n\ncontract NewfiAdvisor is ReentrancyGuardUpgradeSafe, ProxyFactory, Helper {\n    using SafeERC20 for IERC20;\n    using SafeMath for uint256;\n\n    event AdvisorOnBoarded(\n        address indexed advisor,\n        string name,\n        address indexed stablePool,\n        address indexed volatilePool,\n        address stablePoolToken,\n        address volatilePoolToken,\n        uint256 stableCoinMstableProportion,\n        uint256 stableCoinYearnProportion\n    );\n\n    event Investment(\n        address indexed investor,\n        uint256 _stablecoinAmount,\n        uint256 _volatileAmount,\n        address indexed _advisor\n    );\n\n    event ProtocolInvestment(\n        address indexed advisor,\n        uint256 mstableShare,\n        uint256 yearnShare\n    );\n\n    event Unwind(address indexed advisor, uint256 fess);\n\n    struct Advisor {\n        string name;\n        address stablePool;\n        address payable volatilePool;\n        address stablePoolToken;\n        address volatilePoolToken;\n        // diffrentiated for stable coins\n        uint256 stableCoinMstableProportion;\n        uint256 stableCoinYearnProportion;\n    }\n\n    struct Investor {\n        uint256 stablePoolLiquidity;\n        uint256 volatilePoolLiquidity;\n        address[] advisors;\n        bool doesExist;\n    }\n\n    mapping(address => Advisor) private advisorInfo;\n\n    mapping(address => Investor) private investorInfo;\n\n    address[] public advisors;\n\n    address[] public advisorTokens;\n\n    address[] public investors;\n\n    // Since it will be fixed\n    // in order to be used in the test cases\n    address\n        public constant massetAddress = 0xe2f2a5C287993345a840Db3B0845fbC70f5935a5;\n\n    address\n        public constant savingContract = 0xcf3F73290803Fc04425BEE135a4Caeb2BaB2C2A1;\n    // usd/eth aggregator\n    address\n        internal constant fiatRef = 0x5f4eC3Df9cbd43714FE2740f5E3616155c5b8419;\n\n    address public stablePoolProxy;\n    address public volatilePoolProxy;\n    address public advisorToken;\n\n    /**\n        Constructor\n        @param _stablePool Address of the proxy contract defined above to create clones.\n    */\n    constructor(\n        address _stablePool,\n        address _volatilePool,\n        address _token\n    ) public {\n        stablePoolProxy = _stablePool;\n        volatilePoolProxy = _volatilePool;\n        advisorToken = _token;\n    }\n\n    /**\n        Onboards a new Advisor\n        @param _name Name of the Advisor.\n     */\n    function createAdvisor(\n        string calldata _name,\n        // for volatile pool since volatile pool will be used for yearn investment\n        uint256 _stableCoinMstableProportion,\n        uint256 _stableCoinYearnProportion\n    ) external payable {\n        require(\n            advisorInfo[msg.sender].stablePool == address(0),\n            'Advisor exists'\n        );\n        require(\n            _stableCoinMstableProportion != 0 ||\n                _stableCoinYearnProportion != 0,\n            'Both Stable Proportions are 0'\n        );\n        require(\n            _stableCoinMstableProportion.add(_stableCoinYearnProportion) == 100,\n            'Total Proportion is not 100'\n        );\n        // msg.sender here would eb the advisor address\n        address stablePool = createProxyPool(stablePoolProxy, msg.sender);\n        address volatilePool = createProxyPool(volatilePoolProxy, msg.sender);\n        address stablePoolToken = createPoolToken(\n            string(abi.encodePacked(_name, 'NewfiStableToken')),\n            'NST',\n            msg.sender\n        );\n        address volatilePoolToken = createPoolToken(\n            string(abi.encodePacked(_name, 'NewfiVolatileToken')),\n            'NVT',\n            msg.sender\n        );\n\n        advisorInfo[msg.sender] = Advisor(\n            _name,\n            stablePool,\n            address(uint160(volatilePool)),\n            stablePoolToken,\n            volatilePoolToken,\n            _stableCoinMstableProportion,\n            _stableCoinYearnProportion\n        );\n\n        advisors.push(msg.sender);\n        emit AdvisorOnBoarded(\n            msg.sender,\n            _name,\n            stablePoolProxy,\n            volatilePoolProxy,\n            stablePoolToken,\n            volatilePoolToken,\n            _stableCoinMstableProportion,\n            _stableCoinYearnProportion\n        );\n    }\n\n    function getStablePoolValue(address _advisor)\n        public\n        view\n        returns (uint256)\n    {\n        Advisor storage advisor = advisorInfo[_advisor];\n        address stablePool = advisor.stablePool;\n        uint256 mstablePoolInvestmentValue = SavingsContract(savingContract)\n            .creditBalances(stablePool)\n            .mul(SavingsContract(savingContract).exchangeRate());\n\n        uint256 yearnPoolStableCoinInvestmentValue = YearnVault(getUSDCVault())\n            .balanceOf(advisor.volatilePool)\n            .mul(YearnVault(getUSDCVault()).getPricePerFullShare());\n        return\n            mstablePoolInvestmentValue.add(yearnPoolStableCoinInvestmentValue);\n    }\n\n    function getUsdcQuote(uint256 _ethAmount) public view returns (uint256) {\n        uint256 usdQuote = uint256(AggregatorInterface(fiatRef).latestAnswer());\n        // since usdQuote in 10**8 form\n        return (_ethAmount.mul(usdQuote)).div(10**8);\n    }\n\n    function getVolatilePoolValue(address _advisor)\n        public\n        view\n        returns (uint256)\n    {\n        Advisor storage advisor = advisorInfo[_advisor];\n\n        // converting int256 to uint256\n        uint256 usdQuote = uint256(AggregatorInterface(fiatRef).latestAnswer());\n        uint256 ethPoolValue = (advisor.volatilePool.balance.mul(usdQuote)).div(\n            10**8\n        );\n        return ethPoolValue;\n    }\n\n    /**\n     * @dev Returns the name of the advisor.\n     */\n    function advisorName(address account) public view returns (string memory) {\n        return advisorInfo[account].name;\n    }\n\n    /**\n     * @dev Returns the address of an advisors volatile pool.\n     */\n    function advisorVolatilePool(address account)\n        public\n        view\n        returns (address)\n    {\n        return advisorInfo[account].volatilePool;\n    }\n\n    /**\n     * @dev Returns an investors stable pool liquidity.\n     */\n    function investorStableLiquidity(address account)\n        public\n        view\n        returns (uint256)\n    {\n        return investorInfo[account].stablePoolLiquidity;\n    }\n\n    /**\n     * @dev Returns an investors stable pool token balance.\n     */\n    function investorStablePoolTokens(address _advisor)\n        public\n        view\n        returns (uint256)\n    {\n        Advisor storage advisor = advisorInfo[_advisor];\n        return NewfiToken(advisor.stablePoolToken).balanceOf(msg.sender);\n    }\n\n    /**\n     * @dev Returns an investors volatile pool liquidity.\n     */\n    function investorVolatileLiquidity(address account)\n        public\n        view\n        returns (uint256)\n    {\n        return investorInfo[account].volatilePoolLiquidity;\n    }\n\n    /**\n     * @dev Returns advisor data for an investor.\n     */\n    function getAdvisors(address account)\n        public\n        view\n        returns (address[] memory)\n    {\n        return investorInfo[account].advisors;\n    }\n\n    /**\n     * @dev Add unique advisors to a list.\n     */\n    function addAdvisor(address account, address advisor) internal {\n        Investor storage investor = investorInfo[account];\n        bool exists = false;\n\n        for (uint256 i = 0; i < investor.advisors.length; i++) {\n            if (advisors[i] == advisor) {\n                exists = true;\n            }\n        }\n        if (!exists) {\n            investor.advisors.push(advisor);\n        }\n    }\n\n    /**\n        Create an advisors proxy pool\n        @param _proxy address of proxy.\n        @param _advisor address of advisor.\n     */\n    function createProxyPool(address _proxy, address _advisor)\n        internal\n        returns (address)\n    {\n        bytes memory _payload = abi.encodeWithSignature(\n            'initialize(address)',\n            _advisor\n        );\n        return deployMinimal(_proxy, _payload);\n    }\n\n    /**\n        Create an advisors token\n        @param _name of token.\n        @param _symbol of token.\n        @param _advisor address of advisor.\n     */\n    function createPoolToken(\n        string memory _name,\n        string memory _symbol,\n        address _advisor\n    ) internal returns (address) {\n        bytes memory payload = abi.encodeWithSignature(\n            'initialize(string,string)',\n            _name,\n            _symbol,\n            _advisor\n        );\n        address token = deployMinimal(advisorToken, payload);\n        advisorTokens.push(token);\n\n        return token;\n    }\n\n    /**\n        Investor deposits liquidity to advisor pools\n        @param _stablecoin address of stablecoin.\n        @param _totalInvest amount of stable coin.\n        @param _advisor address of selected advisor.\n     */\n    function invest(\n        address _stablecoin,\n        uint256 _totalInvest,\n        address _advisor\n    )\n        external\n        payable\n    // since we have now changed the logic with all usdc in stable and eth in volatile\n    // uint256 _stableProportion,\n    // uint256 _volatileProportion\n    {\n        Advisor storage advisor = advisorInfo[_advisor];\n        IERC20 token = IERC20(_stablecoin);\n        NewfiToken newfiStableToken = NewfiToken(advisor.stablePoolToken);\n        NewfiToken newfiVolatileToken = NewfiToken(advisor.volatilePoolToken);\n\n        // uint256 stableInvest = (_totalInvest.mul(_stableProportion)).div(100);\n        // uint256 volatileInvest = (_totalInvest.mul(_volatileProportion)).div(\n        //     100\n        // );\n        uint256 mintedStablePoolToken;\n        if (_totalInvest > 0) {\n            uint256 stablePoolTokenPrice;\n            if (getStablePoolValue(_advisor) > 0) {\n                // calculating  P i.e price of the token\n                stablePoolTokenPrice = getStablePoolValue(_advisor).div(\n                    newfiStableToken.totalSupply()\n                );\n            } else {\n                stablePoolTokenPrice = 0;\n            }\n            // converting usdc to wei since pool token is of 18 decimals\n            mintedStablePoolToken = _totalInvest.mul(10**12);\n\n            newfiStableToken.mintOwnershipTokens(\n                msg.sender,\n                stablePoolTokenPrice,\n                mintedStablePoolToken\n            );\n            token.safeTransferFrom(\n                msg.sender,\n                advisor.stablePool,\n                _totalInvest\n            );\n        }\n        if (msg.value > 0) {\n            uint256 volatilePoolTokenPrice;\n            if (getVolatilePoolValue(_advisor) > 0) {\n                // calculating  P i.e price of the token\n                volatilePoolTokenPrice = getVolatilePoolValue(_advisor).div(\n                    newfiVolatileToken.totalSupply()\n                );\n            } else {\n                volatilePoolTokenPrice = 0;\n            }\n\n            newfiVolatileToken.mintOwnershipTokens(\n                msg.sender,\n                volatilePoolTokenPrice,\n                msg.value\n            );\n            (bool success, ) = advisor.volatilePool.call{value: msg.value}('');\n            require(success, 'Transfer failed.');\n        }\n\n        Investor storage investor = investorInfo[msg.sender];\n        if (investor.doesExist) {\n            investor.stablePoolLiquidity = investor.stablePoolLiquidity.add(\n                mintedStablePoolToken\n            );\n            investor.volatilePoolLiquidity = investor.volatilePoolLiquidity.add(\n                msg.value\n            );\n            addAdvisor(msg.sender, _advisor);\n\n            // not including the pool token balance calculation at the moment\n        } else {\n            investorInfo[msg.sender] = Investor(\n                mintedStablePoolToken,\n                msg.value,\n                new address[](0),\n                true\n            );\n            addAdvisor(msg.sender, _advisor);\n        }\n\n        emit Investment(msg.sender, mintedStablePoolToken, msg.value, _advisor);\n    }\n\n    /**\n        Advisor Investing a particular investors pool liquidity\n        @param _stablecoin address of stablecoin to invest in mstable, will take usdc for hack.\n        // IMP NOTE => _mstableInvestmentAmount & _yearnInvestmentAmountsw will be based on the advisors mstable and yearn proportions\n     */\n    function protocolInvestment(address _stablecoin) external {\n        Advisor storage advisor = advisorInfo[msg.sender];\n        IERC20 token = IERC20(_stablecoin);\n        uint256 stableProtocolInvestmentAmount = token.balanceOf(\n            advisor.stablePool\n        );\n        // only investing stable coin in yearn and mstable eth will sit in the pool\n        // uint256 volatileProtocolStableCoinInvestmentAmount = token.balanceOf(\n        //     advisor.volatilePool\n        // );\n        // eth bal\n        // uint256 volatileProtocolVolatileCoinInvestmentAmount = advisor\n        //     .volatilePool\n        //     .balance;\n        // calling the functions in proxy contract since amount is stored there so broken them into 2 different proxies\n        if (stableProtocolInvestmentAmount > 0) {\n            StablePoolProxy(advisor.stablePool).invest(\n                massetAddress,\n                _stablecoin,\n                stableProtocolInvestmentAmount,\n                savingContract,\n                advisor.stableCoinMstableProportion,\n                advisor.stableCoinYearnProportion\n            );\n        }\n        // VolatilePoolProxy(advisor.volatilePool).investYearn(\n        //     volatileProtocolStableCoinInvestmentAmount\n        //     // volatileProtocolVolatileCoinInvestmentAmount\n        // );\n        // uint256 totalAmount = volatileProtocolStableCoinInvestmentAmount.add(\n        //     volatileProtocolVolatileCoinInvestmentAmount\n        //);\n        emit ProtocolInvestment(msg.sender, stableProtocolInvestmentAmount, 0);\n    }\n\n    /**\n        Investor Unwinding their position\n        @param _advisor Address of the advisor.\n        @param _stablecoin address of stablecoin to invest in mstable, will take usdc for hack.\n     */\n    function unwind(address _advisor, address _stablecoin) external {\n        Investor storage investor = investorInfo[msg.sender];\n        Advisor storage advisor = advisorInfo[_advisor];\n\n        uint256 advisorStablePoolFees = StablePoolProxy(advisor.stablePool)\n            .redeemAmount(\n            msg.sender,\n            _advisor,\n            massetAddress,\n            savingContract,\n            _stablecoin,\n            investor.stablePoolLiquidity,\n            advisor.stablePoolToken,\n            advisor.stableCoinMstableProportion\n        );\n\n        uint256 advisorVolatilePoolFees = VolatilePoolProxy(\n            advisor\n                .volatilePool\n        )\n            .redeemAmount(\n            msg.sender,\n            _advisor,\n            investor.volatilePoolLiquidity,\n            advisor.volatilePoolToken\n        );\n        emit Unwind(\n            _advisor,\n            advisorStablePoolFees.add(advisorVolatilePoolFees)\n        );\n    }\n}\n",
  "sourcePath": "contracts/NewfiAdvisor.sol",
  "abi": [
    {
      "inputs": [
        {
          "internalType": "address",
          "name": "_stablePool",
          "type": "address"
        },
        {
          "internalType": "address",
          "name": "_volatilePool",
          "type": "address"
        },
        {
          "internalType": "address",
          "name": "_token",
          "type": "address"
        }
      ],
      "stateMutability": "nonpayable",
      "type": "constructor"
    },
    {
      "anonymous": false,
      "inputs": [
        {
          "indexed": true,
          "internalType": "address",
          "name": "advisor",
          "type": "address"
        },
        {
          "indexed": false,
          "internalType": "string",
          "name": "name",
          "type": "string"
        },
        {
          "indexed": true,
          "internalType": "address",
          "name": "stablePool",
          "type": "address"
        },
        {
          "indexed": true,
          "internalType": "address",
          "name": "volatilePool",
          "type": "address"
        },
        {
          "indexed": false,
          "internalType": "address",
          "name": "stablePoolToken",
          "type": "address"
        },
        {
          "indexed": false,
          "internalType": "address",
          "name": "volatilePoolToken",
          "type": "address"
        },
        {
          "indexed": false,
          "internalType": "uint256",
          "name": "stableCoinMstableProportion",
          "type": "uint256"
        },
        {
          "indexed": false,
          "internalType": "uint256",
          "name": "stableCoinYearnProportion",
          "type": "uint256"
        }
      ],
      "name": "AdvisorOnBoarded",
      "type": "event"
    },
    {
      "anonymous": false,
      "inputs": [
        {
          "indexed": true,
          "internalType": "address",
          "name": "investor",
          "type": "address"
        },
        {
          "indexed": false,
          "internalType": "uint256",
          "name": "_stablecoinAmount",
          "type": "uint256"
        },
        {
          "indexed": false,
          "internalType": "uint256",
          "name": "_volatileAmount",
          "type": "uint256"
        },
        {
          "indexed": true,
          "internalType": "address",
          "name": "_advisor",
          "type": "address"
        }
      ],
      "name": "Investment",
      "type": "event"
    },
    {
      "anonymous": false,
      "inputs": [
        {
          "indexed": true,
          "internalType": "address",
          "name": "advisor",
          "type": "address"
        },
        {
          "indexed": false,
          "internalType": "uint256",
          "name": "mstableShare",
          "type": "uint256"
        },
        {
          "indexed": false,
          "internalType": "uint256",
          "name": "yearnShare",
          "type": "uint256"
        }
      ],
      "name": "ProtocolInvestment",
      "type": "event"
    },
    {
      "anonymous": false,
      "inputs": [
        {
          "indexed": false,
          "internalType": "address",
          "name": "proxy",
          "type": "address"
        }
      ],
      "name": "ProxyCreated",
      "type": "event"
    },
    {
      "anonymous": false,
      "inputs": [
        {
          "indexed": true,
          "internalType": "address",
          "name": "advisor",
          "type": "address"
        },
        {
          "indexed": false,
          "internalType": "uint256",
          "name": "fess",
          "type": "uint256"
        }
      ],
      "name": "Unwind",
      "type": "event"
    },
    {
      "inputs": [
        {
          "internalType": "address",
          "name": "account",
          "type": "address"
        }
      ],
      "name": "advisorName",
      "outputs": [
        {
          "internalType": "string",
          "name": "",
          "type": "string"
        }
      ],
      "stateMutability": "view",
      "type": "function"
    },
    {
      "inputs": [],
      "name": "advisorToken",
      "outputs": [
        {
          "internalType": "address",
          "name": "",
          "type": "address"
        }
      ],
      "stateMutability": "view",
      "type": "function"
    },
    {
      "inputs": [
        {
          "internalType": "uint256",
          "name": "",
          "type": "uint256"
        }
      ],
      "name": "advisorTokens",
      "outputs": [
        {
          "internalType": "address",
          "name": "",
          "type": "address"
        }
      ],
      "stateMutability": "view",
      "type": "function"
    },
    {
      "inputs": [
        {
          "internalType": "address",
          "name": "account",
          "type": "address"
        }
      ],
      "name": "advisorVolatilePool",
      "outputs": [
        {
          "internalType": "address",
          "name": "",
          "type": "address"
        }
      ],
      "stateMutability": "view",
      "type": "function"
    },
    {
      "inputs": [
        {
          "internalType": "uint256",
          "name": "",
          "type": "uint256"
        }
      ],
      "name": "advisors",
      "outputs": [
        {
          "internalType": "address",
          "name": "",
          "type": "address"
        }
      ],
      "stateMutability": "view",
      "type": "function"
    },
    {
      "inputs": [
        {
          "internalType": "string",
          "name": "_name",
          "type": "string"
        },
        {
          "internalType": "uint256",
          "name": "_stableCoinMstableProportion",
          "type": "uint256"
        },
        {
          "internalType": "uint256",
          "name": "_stableCoinYearnProportion",
          "type": "uint256"
        }
      ],
      "name": "createAdvisor",
      "outputs": [],
      "stateMutability": "payable",
      "type": "function"
    },
    {
      "inputs": [
        {
          "internalType": "address",
          "name": "_logic",
          "type": "address"
        },
        {
          "internalType": "bytes",
          "name": "_data",
          "type": "bytes"
        }
      ],
      "name": "deployMinimal",
      "outputs": [
        {
          "internalType": "address",
          "name": "proxy",
          "type": "address"
        }
      ],
      "stateMutability": "nonpayable",
      "type": "function"
    },
    {
      "inputs": [
        {
          "internalType": "address",
          "name": "account",
          "type": "address"
        }
      ],
      "name": "getAdvisors",
      "outputs": [
        {
          "internalType": "address[]",
          "name": "",
          "type": "address[]"
        }
      ],
      "stateMutability": "view",
      "type": "function"
    },
    {
      "inputs": [
        {
          "internalType": "address",
          "name": "_advisor",
          "type": "address"
        }
      ],
      "name": "getStablePoolValue",
      "outputs": [
        {
          "internalType": "uint256",
          "name": "",
          "type": "uint256"
        }
      ],
      "stateMutability": "view",
      "type": "function"
    },
    {
      "inputs": [],
      "name": "getUSDCVault",
      "outputs": [
        {
          "internalType": "address",
          "name": "usdcVault",
          "type": "address"
        }
      ],
      "stateMutability": "pure",
      "type": "function"
    },
    {
      "inputs": [
        {
          "internalType": "uint256",
          "name": "_ethAmount",
          "type": "uint256"
        }
      ],
      "name": "getUsdcQuote",
      "outputs": [
        {
          "internalType": "uint256",
          "name": "",
          "type": "uint256"
        }
      ],
      "stateMutability": "view",
      "type": "function"
    },
    {
      "inputs": [
        {
          "internalType": "address",
          "name": "_advisor",
          "type": "address"
        }
      ],
      "name": "getVolatilePoolValue",
      "outputs": [
        {
          "internalType": "uint256",
          "name": "",
          "type": "uint256"
        }
      ],
      "stateMutability": "view",
      "type": "function"
    },
    {
      "inputs": [
        {
          "internalType": "address",
          "name": "_stablecoin",
          "type": "address"
        },
        {
          "internalType": "uint256",
          "name": "_totalInvest",
          "type": "uint256"
        },
        {
          "internalType": "address",
          "name": "_advisor",
          "type": "address"
        }
      ],
      "name": "invest",
      "outputs": [],
      "stateMutability": "payable",
      "type": "function"
    },
    {
      "inputs": [
        {
          "internalType": "address",
          "name": "account",
          "type": "address"
        }
      ],
      "name": "investorStableLiquidity",
      "outputs": [
        {
          "internalType": "uint256",
          "name": "",
          "type": "uint256"
        }
      ],
      "stateMutability": "view",
      "type": "function"
    },
    {
      "inputs": [
        {
          "internalType": "address",
          "name": "_advisor",
          "type": "address"
        }
      ],
      "name": "investorStablePoolTokens",
      "outputs": [
        {
          "internalType": "uint256",
          "name": "",
          "type": "uint256"
        }
      ],
      "stateMutability": "view",
      "type": "function"
    },
    {
      "inputs": [
        {
          "internalType": "address",
          "name": "account",
          "type": "address"
        }
      ],
      "name": "investorVolatileLiquidity",
      "outputs": [
        {
          "internalType": "uint256",
          "name": "",
          "type": "uint256"
        }
      ],
      "stateMutability": "view",
      "type": "function"
    },
    {
      "inputs": [
        {
          "internalType": "uint256",
          "name": "",
          "type": "uint256"
        }
      ],
      "name": "investors",
      "outputs": [
        {
          "internalType": "address",
          "name": "",
          "type": "address"
        }
      ],
      "stateMutability": "view",
      "type": "function"
    },
    {
      "inputs": [],
      "name": "massetAddress",
      "outputs": [
        {
          "internalType": "address",
          "name": "",
          "type": "address"
        }
      ],
      "stateMutability": "view",
      "type": "function"
    },
    {
      "inputs": [
        {
          "internalType": "address",
          "name": "_stablecoin",
          "type": "address"
        }
      ],
      "name": "protocolInvestment",
      "outputs": [],
      "stateMutability": "nonpayable",
      "type": "function"
    },
    {
      "inputs": [],
      "name": "savingContract",
      "outputs": [
        {
          "internalType": "address",
          "name": "",
          "type": "address"
        }
      ],
      "stateMutability": "view",
      "type": "function"
    },
    {
      "inputs": [],
      "name": "stablePoolProxy",
      "outputs": [
        {
          "internalType": "address",
          "name": "",
          "type": "address"
        }
      ],
      "stateMutability": "view",
      "type": "function"
    },
    {
      "inputs": [
        {
          "internalType": "address",
          "name": "_advisor",
          "type": "address"
        },
        {
          "internalType": "address",
          "name": "_stablecoin",
          "type": "address"
        }
      ],
      "name": "unwind",
      "outputs": [],
      "stateMutability": "nonpayable",
      "type": "function"
    },
    {
      "inputs": [],
      "name": "volatilePoolProxy",
      "outputs": [
        {
          "internalType": "address",
          "name": "",
          "type": "address"
        }
      ],
      "stateMutability": "view",
      "type": "function"
    }
  ],
  "bytecode": "0x608060405234801561001057600080fd5b506040516139413803806139418339818101604052606081101561003357600080fd5b8101908080519060200190929190805190602001909291908051906020019092919050505082606a60006101000a81548173ffffffffffffffffffffffffffffffffffffffff021916908373ffffffffffffffffffffffffffffffffffffffff16021790555081606b60006101000a81548173ffffffffffffffffffffffffffffffffffffffff021916908373ffffffffffffffffffffffffffffffffffffffff16021790555080606c60006101000a81548173ffffffffffffffffffffffffffffffffffffffff021916908373ffffffffffffffffffffffffffffffffffffffff1602179055505050506138148061012d6000396000f3fe6080604052600436106101405760003560e01c80638b4b307b116100b6578063b3eeb5e21161006f578063b3eeb5e214610788578063c03a3f131461089a578063d42f5f3c146108ff578063f41c9ace14610964578063f8102e0d146109f1578063ffd51b0514610abb57610140565b80638b4b307b146105725780638ef77519146105ed5780639651859614610652578063a268205914610693578063aa301227146106f8578063b1e7a38c1461073957610140565b80633feb5f2b116101085780633feb5f2b1461033757806340d6dd8e1461039c57806342d69d07146103ed5780634596ca111461042e5780634c3266141461049f578063671904161461050457610140565b806304965c681461014557806304e15c0a146101aa5780630ae42590146101eb57806329c551501461022c5780633f994bd1146102d2575b600080fd5b34801561015157600080fd5b506101946004803603602081101561016857600080fd5b81019080803573ffffffffffffffffffffffffffffffffffffffff169060200190929190505050610afc565b6040518082815260200191505060405180910390f35b3480156101b657600080fd5b506101bf610e51565b604051808273ffffffffffffffffffffffffffffffffffffffff16815260200191505060405180910390f35b3480156101f757600080fd5b50610200610e6d565b604051808273ffffffffffffffffffffffffffffffffffffffff16815260200191505060405180910390f35b34801561023857600080fd5b5061027b6004803603602081101561024f57600080fd5b81019080803573ffffffffffffffffffffffffffffffffffffffff169060200190929190505050610e93565b6040518080602001828103825283818151815260200191508051906020019060200280838360005b838110156102be5780820151818401526020810190506102a3565b505050509050019250505060405180910390f35b3480156102de57600080fd5b50610321600480360360208110156102f557600080fd5b81019080803573ffffffffffffffffffffffffffffffffffffffff169060200190929190505050610f63565b6040518082815260200191505060405180910390f35b34801561034357600080fd5b506103706004803603602081101561035a57600080fd5b81019080803590602001909291905050506110b3565b604051808273ffffffffffffffffffffffffffffffffffffffff16815260200191505060405180910390f35b3480156103a857600080fd5b506103eb600480360360208110156103bf57600080fd5b81019080803573ffffffffffffffffffffffffffffffffffffffff1690602001909291905050506110ef565b005b3480156103f957600080fd5b50610402611391565b604051808273ffffffffffffffffffffffffffffffffffffffff16815260200191505060405180910390f35b34801561043a57600080fd5b5061049d6004803603604081101561045157600080fd5b81019080803573ffffffffffffffffffffffffffffffffffffffff169060200190929190803573ffffffffffffffffffffffffffffffffffffffff1690602001909291905050506113b7565b005b3480156104ab57600080fd5b506104ee600480360360208110156104c257600080fd5b81019080803573ffffffffffffffffffffffffffffffffffffffff1690602001909291905050506117a3565b6040518082815260200191505060405180910390f35b6105706004803603606081101561051a57600080fd5b81019080803573ffffffffffffffffffffffffffffffffffffffff16906020019092919080359060200190929190803573ffffffffffffffffffffffffffffffffffffffff1690602001909291905050506117ef565b005b34801561057e57600080fd5b506105c16004803603602081101561059557600080fd5b81019080803573ffffffffffffffffffffffffffffffffffffffff169060200190929190505050611ec8565b604051808273ffffffffffffffffffffffffffffffffffffffff16815260200191505060405180910390f35b3480156105f957600080fd5b5061063c6004803603602081101561061057600080fd5b81019080803573ffffffffffffffffffffffffffffffffffffffff169060200190929190505050611f34565b6040518082815260200191505060405180910390f35b34801561065e57600080fd5b50610667612046565b604051808273ffffffffffffffffffffffffffffffffffffffff16815260200191505060405180910390f35b34801561069f57600080fd5b506106e2600480360360208110156106b657600080fd5b81019080803573ffffffffffffffffffffffffffffffffffffffff16906020019092919050505061205e565b6040518082815260200191505060405180910390f35b34801561070457600080fd5b5061070d6120aa565b604051808273ffffffffffffffffffffffffffffffffffffffff16815260200191505060405180910390f35b34801561074557600080fd5b506107726004803603602081101561075c57600080fd5b81019080803590602001909291905050506120c2565b6040518082815260200191505060405180910390f35b34801561079457600080fd5b5061086e600480360360408110156107ab57600080fd5b81019080803573ffffffffffffffffffffffffffffffffffffffff169060200190929190803590602001906401000000008111156107e857600080fd5b8201836020820111156107fa57600080fd5b8035906020019184600183028401116401000000008311171561081c57600080fd5b91908080601f016020809104026020016040519081016040528093929190818152602001838380828437600081840152601f19601f82011690508083019250505050505050919291929050505061218d565b604051808273ffffffffffffffffffffffffffffffffffffffff16815260200191505060405180910390f35b3480156108a657600080fd5b506108d3600480360360208110156108bd57600080fd5b810190808035906020019092919050505061237b565b604051808273ffffffffffffffffffffffffffffffffffffffff16815260200191505060405180910390f35b34801561090b57600080fd5b506109386004803603602081101561092257600080fd5b81019080803590602001909291905050506123b7565b604051808273ffffffffffffffffffffffffffffffffffffffff16815260200191505060405180910390f35b6109ef6004803603606081101561097a57600080fd5b810190808035906020019064010000000081111561099757600080fd5b8201836020820111156109a957600080fd5b803590602001918460018302840111640100000000831117156109cb57600080fd5b909192939192939080359060200190929190803590602001909291905050506123f3565b005b3480156109fd57600080fd5b50610a4060048036036020811015610a1457600080fd5b81019080803573ffffffffffffffffffffffffffffffffffffffff169060200190929190505050612b8d565b6040518080602001828103825283818151815260200191508051906020019080838360005b83811015610a80578082015181840152602081019050610a65565b50505050905090810190601f168015610aad5780820380516001836020036101000a031916815260200191505b509250505060405180910390f35b348015610ac757600080fd5b50610ad0612c71565b604051808273ffffffffffffffffffffffffffffffffffffffff16815260200191505060405180910390f35b600080606560008473ffffffffffffffffffffffffffffffffffffffff1673ffffffffffffffffffffffffffffffffffffffff168152602001908152602001600020905060008160010160009054906101000a900473ffffffffffffffffffffffffffffffffffffffff1690506000610cc773cf3f73290803fc04425bee135a4caeb2bab2c2a173ffffffffffffffffffffffffffffffffffffffff16633ba0b9a96040518163ffffffff1660e01b815260040160206040518083038186803b158015610bc857600080fd5b505afa158015610bdc573d6000803e3d6000fd5b505050506040513d6020811015610bf257600080fd5b810190808051906020019092919050505073cf3f73290803fc04425bee135a4caeb2bab2c2a173ffffffffffffffffffffffffffffffffffffffff16636009a2d8856040518263ffffffff1660e01b8152600401808273ffffffffffffffffffffffffffffffffffffffff16815260200191505060206040518083038186803b158015610c7e57600080fd5b505afa158015610c92573d6000803e3d6000fd5b505050506040513d6020811015610ca857600080fd5b8101908080519060200190929190505050612c9790919063ffffffff16565b90506000610e31610cd6610e51565b73ffffffffffffffffffffffffffffffffffffffff166377c7b8fc6040518163ffffffff1660e01b815260040160206040518083038186803b158015610d1b57600080fd5b505afa158015610d2f573d6000803e3d6000fd5b505050506040513d6020811015610d4557600080fd5b8101908080519060200190929190505050610d5e610e51565b73ffffffffffffffffffffffffffffffffffffffff166370a082318760020160009054906101000a900473ffffffffffffffffffffffffffffffffffffffff166040518263ffffffff1660e01b8152600401808273ffffffffffffffffffffffffffffffffffffffff16815260200191505060206040518083038186803b158015610de857600080fd5b505afa158015610dfc573d6000803e3d6000fd5b505050506040513d6020811015610e1257600080fd5b8101908080519060200190929190505050612c9790919063ffffffff16565b9050610e468183612d1d90919063ffffffff16565b945050505050919050565b600073597ad1e0c13bfe8025993d9e79c69e1c0233522e905090565b606b60009054906101000a900473ffffffffffffffffffffffffffffffffffffffff1681565b6060606660008373ffffffffffffffffffffffffffffffffffffffff1673ffffffffffffffffffffffffffffffffffffffff168152602001908152602001600020600201805480602002602001604051908101604052809291908181526020018280548015610f5757602002820191906000526020600020905b8160009054906101000a900473ffffffffffffffffffffffffffffffffffffffff1673ffffffffffffffffffffffffffffffffffffffff1681526020019060010190808311610f0d575b50505050509050919050565b600080606560008473ffffffffffffffffffffffffffffffffffffffff1673ffffffffffffffffffffffffffffffffffffffff16815260200190815260200160002090506000735f4ec3df9cbd43714fe2740f5e3616155c5b841973ffffffffffffffffffffffffffffffffffffffff166350d25bcd6040518163ffffffff1660e01b815260040160206040518083038186803b15801561100357600080fd5b505afa158015611017573d6000803e3d6000fd5b505050506040513d602081101561102d57600080fd5b8101908080519060200190929190505050905060006110a66305f5e100611098848660020160009054906101000a900473ffffffffffffffffffffffffffffffffffffffff1673ffffffffffffffffffffffffffffffffffffffff1631612c9790919063ffffffff16565b612da590919063ffffffff16565b9050809350505050919050565b606981815481106110c057fe5b906000526020600020016000915054906101000a900473ffffffffffffffffffffffffffffffffffffffff1681565b6000606560003373ffffffffffffffffffffffffffffffffffffffff1673ffffffffffffffffffffffffffffffffffffffff1681526020019081526020016000209050600082905060008173ffffffffffffffffffffffffffffffffffffffff166370a082318460010160009054906101000a900473ffffffffffffffffffffffffffffffffffffffff166040518263ffffffff1660e01b8152600401808273ffffffffffffffffffffffffffffffffffffffff16815260200191505060206040518083038186803b1580156111c457600080fd5b505afa1580156111d8573d6000803e3d6000fd5b505050506040513d60208110156111ee57600080fd5b810190808051906020019092919050505090506000811115611334578260010160009054906101000a900473ffffffffffffffffffffffffffffffffffffffff1673ffffffffffffffffffffffffffffffffffffffff1663a39483a973e2f2a5c287993345a840db3b0845fbc70f5935a5868473cf3f73290803fc04425bee135a4caeb2bab2c2a1886005015489600601546040518763ffffffff1660e01b8152600401808773ffffffffffffffffffffffffffffffffffffffff1681526020018673ffffffffffffffffffffffffffffffffffffffff1681526020018581526020018473ffffffffffffffffffffffffffffffffffffffff1681526020018381526020018281526020019650505050505050600060405180830381600087803b15801561131b57600080fd5b505af115801561132f573d6000803e3d6000fd5b505050505b3373ffffffffffffffffffffffffffffffffffffffff167f42acb0dce1c64baf48aa8f93bcb09ce31e1102fdc501c884d50d35d5e6151798826000604051808381526020018281526020019250505060405180910390a250505050565b606a60009054906101000a900473ffffffffffffffffffffffffffffffffffffffff1681565b6000606660003373ffffffffffffffffffffffffffffffffffffffff1673ffffffffffffffffffffffffffffffffffffffff16815260200190815260200160002090506000606560008573ffffffffffffffffffffffffffffffffffffffff1673ffffffffffffffffffffffffffffffffffffffff168152602001908152602001600020905060008160010160009054906101000a900473ffffffffffffffffffffffffffffffffffffffff1673ffffffffffffffffffffffffffffffffffffffff16631a6908d6338773e2f2a5c287993345a840db3b0845fbc70f5935a573cf3f73290803fc04425bee135a4caeb2bab2c2a18989600001548960030160009054906101000a900473ffffffffffffffffffffffffffffffffffffffff168a600501546040518963ffffffff1660e01b8152600401808973ffffffffffffffffffffffffffffffffffffffff1681526020018873ffffffffffffffffffffffffffffffffffffffff1681526020018773ffffffffffffffffffffffffffffffffffffffff1681526020018673ffffffffffffffffffffffffffffffffffffffff1681526020018573ffffffffffffffffffffffffffffffffffffffff1681526020018481526020018373ffffffffffffffffffffffffffffffffffffffff16815260200182815260200198505050505050505050602060405180830381600087803b1580156115c657600080fd5b505af11580156115da573d6000803e3d6000fd5b505050506040513d60208110156115f057600080fd5b8101908080519060200190929190505050905060008260020160009054906101000a900473ffffffffffffffffffffffffffffffffffffffff1673ffffffffffffffffffffffffffffffffffffffff166357023652338887600101548760040160009054906101000a900473ffffffffffffffffffffffffffffffffffffffff166040518563ffffffff1660e01b8152600401808573ffffffffffffffffffffffffffffffffffffffff1681526020018473ffffffffffffffffffffffffffffffffffffffff1681526020018381526020018273ffffffffffffffffffffffffffffffffffffffff168152602001945050505050602060405180830381600087803b1580156116fe57600080fd5b505af1158015611712573d6000803e3d6000fd5b505050506040513d602081101561172857600080fd5b810190808051906020019092919050505090508573ffffffffffffffffffffffffffffffffffffffff167fe5e7e84b80a4f59cef45be34b1dd281ae46381f37a73ef2b77cc93b7a0fd2a356117868385612d1d90919063ffffffff16565b6040518082815260200191505060405180910390a2505050505050565b6000606660008373ffffffffffffffffffffffffffffffffffffffff1673ffffffffffffffffffffffffffffffffffffffff168152602001908152602001600020600101549050919050565b6000606560008373ffffffffffffffffffffffffffffffffffffffff1673ffffffffffffffffffffffffffffffffffffffff1681526020019081526020016000209050600084905060008260030160009054906101000a900473ffffffffffffffffffffffffffffffffffffffff16905060008360040160009054906101000a900473ffffffffffffffffffffffffffffffffffffffff169050600080871115611a4a5760008061189f88610afc565b1115611947576119408473ffffffffffffffffffffffffffffffffffffffff166318160ddd6040518163ffffffff1660e01b815260040160206040518083038186803b1580156118ee57600080fd5b505afa158015611902573d6000803e3d6000fd5b505050506040513d602081101561191857600080fd5b810190808051906020019092919050505061193289610afc565b612da590919063ffffffff16565b905061194c565b600090505b61196464e8d4a5100089612c9790919063ffffffff16565b91508373ffffffffffffffffffffffffffffffffffffffff1663334f8eea3383856040518463ffffffff1660e01b8152600401808473ffffffffffffffffffffffffffffffffffffffff1681526020018381526020018281526020019350505050600060405180830381600087803b1580156119df57600080fd5b505af11580156119f3573d6000803e3d6000fd5b50505050611a48338760010160009054906101000a900473ffffffffffffffffffffffffffffffffffffffff168a8873ffffffffffffffffffffffffffffffffffffffff16612def909392919063ffffffff16565b505b6000341115611ca057600080611a5f88610f63565b1115611b0757611b008373ffffffffffffffffffffffffffffffffffffffff166318160ddd6040518163ffffffff1660e01b815260040160206040518083038186803b158015611aae57600080fd5b505afa158015611ac2573d6000803e3d6000fd5b505050506040513d6020811015611ad857600080fd5b8101908080519060200190929190505050611af289610f63565b612da590919063ffffffff16565b9050611b0c565b600090505b8273ffffffffffffffffffffffffffffffffffffffff1663334f8eea3383346040518463ffffffff1660e01b8152600401808473ffffffffffffffffffffffffffffffffffffffff1681526020018381526020018281526020019350505050600060405180830381600087803b158015611b8557600080fd5b505af1158015611b99573d6000803e3d6000fd5b5050505060008660020160009054906101000a900473ffffffffffffffffffffffffffffffffffffffff1673ffffffffffffffffffffffffffffffffffffffff163460405180600001905060006040518083038185875af1925050503d8060008114611c21576040519150601f19603f3d011682016040523d82523d6000602084013e611c26565b606091505b5050905080611c9d576040517f08c379a00000000000000000000000000000000000000000000000000000000081526004018080602001828103825260108152602001807f5472616e73666572206661696c65642e0000000000000000000000000000000081525060200191505060405180910390fd5b50505b6000606660003373ffffffffffffffffffffffffffffffffffffffff1673ffffffffffffffffffffffffffffffffffffffff16815260200190815260200160002090508060030160009054906101000a900460ff1615611d4757611d11828260000154612d1d90919063ffffffff16565b8160000181905550611d30348260010154612d1d90919063ffffffff16565b8160010181905550611d423388612eb0565b611e50565b6040518060800160405280838152602001348152602001600067ffffffffffffffff81118015611d7657600080fd5b50604051908082528060200260200182016040528015611da55781602001602082028036833780820191505090505b50815260200160011515815250606660003373ffffffffffffffffffffffffffffffffffffffff1673ffffffffffffffffffffffffffffffffffffffff16815260200190815260200160002060008201518160000155602082015181600101556040820151816002019080519060200190611e21929190613631565b5060608201518160030160006101000a81548160ff021916908315150217905550905050611e4f3388612eb0565b5b8673ffffffffffffffffffffffffffffffffffffffff163373ffffffffffffffffffffffffffffffffffffffff167f563e3da714f76de7a25889aa15845056bf0182b18696a2410571a6e5b06c39748434604051808381526020018281526020019250505060405180910390a3505050505050505050565b6000606560008373ffffffffffffffffffffffffffffffffffffffff1673ffffffffffffffffffffffffffffffffffffffff16815260200190815260200160002060020160009054906101000a900473ffffffffffffffffffffffffffffffffffffffff169050919050565b600080606560008473ffffffffffffffffffffffffffffffffffffffff1673ffffffffffffffffffffffffffffffffffffffff16815260200190815260200160002090508060030160009054906101000a900473ffffffffffffffffffffffffffffffffffffffff1673ffffffffffffffffffffffffffffffffffffffff166370a08231336040518263ffffffff1660e01b8152600401808273ffffffffffffffffffffffffffffffffffffffff16815260200191505060206040518083038186803b15801561200357600080fd5b505afa158015612017573d6000803e3d6000fd5b505050506040513d602081101561202d57600080fd5b8101908080519060200190929190505050915050919050565b73cf3f73290803fc04425bee135a4caeb2bab2c2a181565b6000606660008373ffffffffffffffffffffffffffffffffffffffff1673ffffffffffffffffffffffffffffffffffffffff168152602001908152602001600020600001549050919050565b73e2f2a5c287993345a840db3b0845fbc70f5935a581565b600080735f4ec3df9cbd43714fe2740f5e3616155c5b841973ffffffffffffffffffffffffffffffffffffffff166350d25bcd6040518163ffffffff1660e01b815260040160206040518083038186803b15801561211f57600080fd5b505afa158015612133573d6000803e3d6000fd5b505050506040513d602081101561214957600080fd5b810190808051906020019092919050505090506121856305f5e1006121778386612c9790919063ffffffff16565b612da590919063ffffffff16565b915050919050565b6000808360601b90506040517f3d602d80600a3d3981f3363d3d373d3d3d363d7300000000000000000000000081528160148201527f5af43d82803e903d91602b57fd5bf3000000000000000000000000000000000060288201526037816000f09250507efffc2da0b561cae30d9826d37709e9421c4725faebc226cbbb7ef5fc5e734982604051808273ffffffffffffffffffffffffffffffffffffffff16815260200191505060405180910390a16000835111156123745760008273ffffffffffffffffffffffffffffffffffffffff16846040518082805190602001908083835b602083106122945780518252602082019150602081019050602083039250612271565b6001836020036101000a0380198251168184511680821785525050505050509050019150506000604051808303816000865af19150503d80600081146122f6576040519150601f19603f3d011682016040523d82523d6000602084013e6122fb565b606091505b5050905080612372576040517f08c379a00000000000000000000000000000000000000000000000000000000081526004018080602001828103825260178152602001807f636f6e7374727563746f722063616c6c206661696c656400000000000000000081525060200191505060405180910390fd5b505b5092915050565b6068818154811061238857fe5b906000526020600020016000915054906101000a900473ffffffffffffffffffffffffffffffffffffffff1681565b606781815481106123c457fe5b906000526020600020016000915054906101000a900473ffffffffffffffffffffffffffffffffffffffff1681565b600073ffffffffffffffffffffffffffffffffffffffff16606560003373ffffffffffffffffffffffffffffffffffffffff1673ffffffffffffffffffffffffffffffffffffffff16815260200190815260200160002060010160009054906101000a900473ffffffffffffffffffffffffffffffffffffffff1673ffffffffffffffffffffffffffffffffffffffff16146124f7576040517f08c379a000000000000000000000000000000000000000000000000000000000815260040180806020018281038252600e8152602001807f41647669736f722065786973747300000000000000000000000000000000000081525060200191505060405180910390fd5b600082141580612508575060008114155b61257a576040517f08c379a000000000000000000000000000000000000000000000000000000000815260040180806020018281038252601d8152602001807f426f746820537461626c652050726f706f7274696f6e7320617265203000000081525060200191505060405180910390fd5b606461258f8284612d1d90919063ffffffff16565b14612602576040517f08c379a000000000000000000000000000000000000000000000000000000000815260040180806020018281038252601b8152602001807f546f74616c2050726f706f7274696f6e206973206e6f7420313030000000000081525060200191505060405180910390fd5b6000612630606a60009054906101000a900473ffffffffffffffffffffffffffffffffffffffff1633612ff5565b90506000612660606b60009054906101000a900473ffffffffffffffffffffffffffffffffffffffff1633612ff5565b905060006126f487876040516020018083838082843780830192505050807f4e65776669537461626c65546f6b656e00000000000000000000000000000000815250601001925050506040516020818303038152906040526040518060400160405280600381526020017f4e53540000000000000000000000000000000000000000000000000000000000815250336130b2565b9050600061278888886040516020018083838082843780830192505050807f4e65776669566f6c6174696c65546f6b656e0000000000000000000000000000815250601201925050506040516020818303038152906040526040518060400160405280600381526020017f4e56540000000000000000000000000000000000000000000000000000000000815250336130b2565b90506040518060e0016040528089898080601f016020809104026020016040519081016040528093929190818152602001838380828437600081840152601f19601f8201169050808301925050505050505081526020018573ffffffffffffffffffffffffffffffffffffffff1681526020018473ffffffffffffffffffffffffffffffffffffffff1681526020018373ffffffffffffffffffffffffffffffffffffffff1681526020018273ffffffffffffffffffffffffffffffffffffffff16815260200187815260200186815250606560003373ffffffffffffffffffffffffffffffffffffffff1673ffffffffffffffffffffffffffffffffffffffff16815260200190815260200160002060008201518160000190805190602001906128b49291906136bb565b5060208201518160010160006101000a81548173ffffffffffffffffffffffffffffffffffffffff021916908373ffffffffffffffffffffffffffffffffffffffff16021790555060408201518160020160006101000a81548173ffffffffffffffffffffffffffffffffffffffff021916908373ffffffffffffffffffffffffffffffffffffffff16021790555060608201518160030160006101000a81548173ffffffffffffffffffffffffffffffffffffffff021916908373ffffffffffffffffffffffffffffffffffffffff16021790555060808201518160040160006101000a81548173ffffffffffffffffffffffffffffffffffffffff021916908373ffffffffffffffffffffffffffffffffffffffff16021790555060a0820151816005015560c082015181600601559050506067339080600181540180825580915050600190039060005260206000200160009091909190916101000a81548173ffffffffffffffffffffffffffffffffffffffff021916908373ffffffffffffffffffffffffffffffffffffffff160217905550606b60009054906101000a900473ffffffffffffffffffffffffffffffffffffffff1673ffffffffffffffffffffffffffffffffffffffff16606a60009054906101000a900473ffffffffffffffffffffffffffffffffffffffff1673ffffffffffffffffffffffffffffffffffffffff163373ffffffffffffffffffffffffffffffffffffffff167f2dba88a1fbbae07d69aed791ea70838a2c0c4f6249b6b16af85ef61963c3d12e8b8b87878d8d60405180806020018673ffffffffffffffffffffffffffffffffffffffff1681526020018573ffffffffffffffffffffffffffffffffffffffff1681526020018481526020018381526020018281038252888882818152602001925080828437600081840152601f19601f82011690508083019250505097505050505050505060405180910390a45050505050505050565b6060606560008373ffffffffffffffffffffffffffffffffffffffff1673ffffffffffffffffffffffffffffffffffffffff1681526020019081526020016000206000018054600181600116156101000203166002900480601f016020809104026020016040519081016040528092919081815260200182805460018160011615610100020316600290048015612c655780601f10612c3a57610100808354040283529160200191612c65565b820191906000526020600020905b815481529060010190602001808311612c4857829003601f168201915b50505050509050919050565b606c60009054906101000a900473ffffffffffffffffffffffffffffffffffffffff1681565b600080831415612caa5760009050612d17565b6000828402905082848281612cbb57fe5b0414612d12576040517f08c379a00000000000000000000000000000000000000000000000000000000081526004018080602001828103825260218152602001806137946021913960400191505060405180910390fd5b809150505b92915050565b600080828401905083811015612d9b576040517f08c379a000000000000000000000000000000000000000000000000000000000815260040180806020018281038252601b8152602001807f536166654d6174683a206164646974696f6e206f766572666c6f77000000000081525060200191505060405180910390fd5b8091505092915050565b6000612de783836040518060400160405280601a81526020017f536166654d6174683a206469766973696f6e206279207a65726f0000000000008152506132d5565b905092915050565b612eaa846323b872dd60e01b858585604051602401808473ffffffffffffffffffffffffffffffffffffffff1681526020018373ffffffffffffffffffffffffffffffffffffffff1681526020018281526020019350505050604051602081830303815290604052907bffffffffffffffffffffffffffffffffffffffffffffffffffffffff19166020820180517bffffffffffffffffffffffffffffffffffffffffffffffffffffffff838183161783525050505061339b565b50505050565b6000606660008473ffffffffffffffffffffffffffffffffffffffff1673ffffffffffffffffffffffffffffffffffffffff16815260200190815260200160002090506000805b8260020180549050811015612f83578373ffffffffffffffffffffffffffffffffffffffff1660678281548110612f2a57fe5b9060005260206000200160009054906101000a900473ffffffffffffffffffffffffffffffffffffffff1673ffffffffffffffffffffffffffffffffffffffff161415612f7657600191505b8080600101915050612ef7565b5080612fef5781600201839080600181540180825580915050600190039060005260206000200160009091909190916101000a81548173ffffffffffffffffffffffffffffffffffffffff021916908373ffffffffffffffffffffffffffffffffffffffff1602179055505b50505050565b6000606082604051602401808273ffffffffffffffffffffffffffffffffffffffff1681526020019150506040516020818303038152906040527fc4d66de8000000000000000000000000000000000000000000000000000000007bffffffffffffffffffffffffffffffffffffffffffffffffffffffff19166020820180517bffffffffffffffffffffffffffffffffffffffffffffffffffffffff838183161783525050505090506130a9848261218d565b91505092915050565b600060608484846040516024018080602001806020018473ffffffffffffffffffffffffffffffffffffffff168152602001838103835286818151815260200191508051906020019080838360005b8381101561311c578082015181840152602081019050613101565b50505050905090810190601f1680156131495780820380516001836020036101000a031916815260200191505b50838103825285818151815260200191508051906020019080838360005b83811015613182578082015181840152602081019050613167565b50505050905090810190601f1680156131af5780820380516001836020036101000a031916815260200191505b50955050505050506040516020818303038152906040527f4cd88b76000000000000000000000000000000000000000000000000000000007bffffffffffffffffffffffffffffffffffffffffffffffffffffffff19166020820180517bffffffffffffffffffffffffffffffffffffffffffffffffffffffff838183161783525050505090506000613264606c60009054906101000a900473ffffffffffffffffffffffffffffffffffffffff168361218d565b90506068819080600181540180825580915050600190039060005260206000200160009091909190916101000a81548173ffffffffffffffffffffffffffffffffffffffff021916908373ffffffffffffffffffffffffffffffffffffffff16021790555080925050509392505050565b60008083118290613381576040517f08c379a00000000000000000000000000000000000000000000000000000000081526004018080602001828103825283818151815260200191508051906020019080838360005b8381101561334657808201518184015260208101905061332b565b50505050905090810190601f1680156133735780820380516001836020036101000a031916815260200191505b509250505060405180910390fd5b50600083858161338d57fe5b049050809150509392505050565b6133ba8273ffffffffffffffffffffffffffffffffffffffff166135e6565b61342c576040517f08c379a000000000000000000000000000000000000000000000000000000000815260040180806020018281038252601f8152602001807f5361666545524332303a2063616c6c20746f206e6f6e2d636f6e74726163740081525060200191505060405180910390fd5b600060608373ffffffffffffffffffffffffffffffffffffffff16836040518082805190602001908083835b6020831061347b5780518252602082019150602081019050602083039250613458565b6001836020036101000a0380198251168184511680821785525050505050509050019150506000604051808303816000865af19150503d80600081146134dd576040519150601f19603f3d011682016040523d82523d6000602084013e6134e2565b606091505b50915091508161355a576040517f08c379a00000000000000000000000000000000000000000000000000000000081526004018080602001828103825260208152602001807f5361666545524332303a206c6f772d6c6576656c2063616c6c206661696c656481525060200191505060405180910390fd5b6000815111156135e05780806020019051602081101561357957600080fd5b81019080805190602001909291905050506135df576040517f08c379a000000000000000000000000000000000000000000000000000000000815260040180806020018281038252602a8152602001806137b5602a913960400191505060405180910390fd5b5b50505050565b60008060007fc5d2460186f7233c927e7db2dcc703c0e500b653ca82273b7bfad8045d85a47060001b9050833f915080821415801561362857506000801b8214155b92505050919050565b8280548282559060005260206000209081019282156136aa579160200282015b828111156136a95782518260006101000a81548173ffffffffffffffffffffffffffffffffffffffff021916908373ffffffffffffffffffffffffffffffffffffffff16021790555091602001919060010190613651565b5b5090506136b7919061373b565b5090565b828054600181600116156101000203166002900490600052602060002090601f016020900481019282601f106136fc57805160ff191683800117855561372a565b8280016001018555821561372a579182015b8281111561372957825182559160200191906001019061370e565b5b5090506137379190613776565b5090565b5b8082111561377257600081816101000a81549073ffffffffffffffffffffffffffffffffffffffff02191690555060010161373c565b5090565b5b8082111561378f576000816000905550600101613777565b509056fe536166654d6174683a206d756c7469706c69636174696f6e206f766572666c6f775361666545524332303a204552433230206f7065726174696f6e20646964206e6f742073756363656564a264697066735822122032395ec396a2c49b024c6b07b5e9027027a1e2a60177278e51fcfc8a635ae8ee64736f6c634300060c0033",
  "compiler": {
    "name": "solc",
    "version": "0.6.12+commit.27d51765.Emscripten.clang",
    "optimizer": {
      "enabled": false,
      "runs": 200
    },
    "evmVersion": "petersburg"
  }
}