{
  "fileName": "StablePoolProxy.sol",
  "contractName": "StablePoolProxy",
  "source": "// SPDX-License-Identifier: Apache-2.0\n\npragma solidity ^0.6.0;\n\nimport \"@openzeppelin/contracts-ethereum-package/contracts/Initializable.sol\";\nimport \"@openzeppelin/contracts-ethereum-package/contracts/access/Ownable.sol\";\nimport \"@openzeppelin/contracts-ethereum-package/contracts/token/ERC20/SafeERC20.sol\";\n\n// would be a 2 step although all in 1 tx\n// for generating yield\n// 1. deposit usdc to Masset Contract\n// 2. deposit received musd to saving contract\n// for unwinding\n// 1. withdraw from savings contract\n// 2. withdraw the recieved musd from masset contract\ninterface MAsset {\n    function mint(address _bAsset, uint256 _bAssetQuanity)\n        external\n        returns (uint256 massetMinted);\n\n    function redeem(address _bAsset, uint256 _bAssetQuanity)\n        external\n        returns (uint256 massetRedeemed);\n}\n\ninterface SavingsContract {\n    function depositSavings(uint256 _amount)\n        external\n        returns (uint256 creditsIssued);\n\n    function creditBalances(address _user) external view returns (uint256);\n\n    function redeem(uint256 _credits) external returns (uint256 massetReturned);\n\n    function exchangeRate() external view returns (uint256);\n}\n\ncontract StablePoolProxy is Initializable, OwnableUpgradeSafe {\n    using SafeMath for uint256;\n    using SafeERC20 for IERC20;\n\n    event Initialized(address indexed thisAddress);\n\n    function initialize(address _advisor) public initializer {\n        OwnableUpgradeSafe.__Ownable_init();\n        OwnableUpgradeSafe.transferOwnership(_advisor);\n        emit Initialized(address(this));\n    }\n\n    /**\n        Advsior deposits liquidity to mstable\n        @param _mAsset address of mstable's musd.\n        @param _bAsset amount of stable coin.\n        @param _amount amount to be deposited.\n        @param _savings address of mstable's savings contract to generate yield.\n     */\n    function investMStable(\n        address _mAsset,\n        address _bAsset,\n        uint256 _amount,\n        address _savings\n    ) external {\n        uint256 mAsset = MAsset(_mAsset).mint(_bAsset, _amount);\n        SavingsContract(_savings).depositSavings(mAsset);\n    }\n\n    /**\n        Advisor redeems lquidity from the stable protocol\n        @param _investor investor address\n        @param _advisor advisor address\n        @param _mAsset address of mstable's musd.\n        @param _savings address of mstable's savings contract to generate yield.\n        @param _stablecoin address of stable coin.\n        @param _investorStablePoolLiquidity stable pool token balance of the investor.\n        @param advisorStablePoolToken address of advisors stable pool token.\n     */\n    function redeemAmount(\n        address _investor,\n        address _advisor,\n        address _mAsset,\n        address _savings,\n        address _stablecoin,\n        uint256 _investorStablePoolLiquidity,\n        address advisorStablePoolToken\n    ) external returns (uint256) {\n        uint256 advisorFee = 0;\n        uint256 poolValue = SavingsContract(_savings)\n            .creditBalances(address(this))\n            .mul(SavingsContract(_savings).exchangeRate());\n        uint256 poolTokenSupply = IERC20(advisorStablePoolToken).totalSupply();\n        uint256 poolTokenPrice = poolValue.div(poolTokenSupply);\n        uint256 investorTotalReturns = _investorStablePoolLiquidity.mul(\n            poolTokenPrice\n        );\n\n        investorTotalReturns = MAsset(_mAsset).redeem(\n            _stablecoin,\n            SavingsContract(_savings).redeem(investorTotalReturns)\n        );\n        // 1 % per investor\n        if (_investor != _advisor) {\n            advisorFee = (investorTotalReturns.mul(1)).div(100);\n            investorTotalReturns = investorTotalReturns.sub(advisorFee);\n            IERC20(_stablecoin).safeTransfer(_advisor, advisorFee);\n        }\n        IERC20(_stablecoin).safeTransfer(_investor, investorTotalReturns);\n        return advisorFee;\n    }\n}\n",
  "sourcePath": "contracts/proxy/StablePoolProxy.sol",
  "abi": [
    {
      "anonymous": false,
      "inputs": [
        {
          "indexed": true,
          "internalType": "address",
          "name": "thisAddress",
          "type": "address"
        }
      ],
      "name": "Initialized",
      "type": "event"
    },
    {
      "anonymous": false,
      "inputs": [
        {
          "indexed": true,
          "internalType": "address",
          "name": "previousOwner",
          "type": "address"
        },
        {
          "indexed": true,
          "internalType": "address",
          "name": "newOwner",
          "type": "address"
        }
      ],
      "name": "OwnershipTransferred",
      "type": "event"
    },
    {
      "inputs": [
        {
          "internalType": "address",
          "name": "_advisor",
          "type": "address"
        }
      ],
      "name": "initialize",
      "outputs": [],
      "stateMutability": "nonpayable",
      "type": "function"
    },
    {
      "inputs": [
        {
          "internalType": "address",
          "name": "_mAsset",
          "type": "address"
        },
        {
          "internalType": "address",
          "name": "_bAsset",
          "type": "address"
        },
        {
          "internalType": "uint256",
          "name": "_amount",
          "type": "uint256"
        },
        {
          "internalType": "address",
          "name": "_savings",
          "type": "address"
        }
      ],
      "name": "investMStable",
      "outputs": [],
      "stateMutability": "nonpayable",
      "type": "function"
    },
    {
      "inputs": [],
      "name": "owner",
      "outputs": [
        {
          "internalType": "address",
          "name": "",
          "type": "address"
        }
      ],
      "stateMutability": "view",
      "type": "function"
    },
    {
      "inputs": [
        {
          "internalType": "address",
          "name": "_investor",
          "type": "address"
        },
        {
          "internalType": "address",
          "name": "_advisor",
          "type": "address"
        },
        {
          "internalType": "address",
          "name": "_mAsset",
          "type": "address"
        },
        {
          "internalType": "address",
          "name": "_savings",
          "type": "address"
        },
        {
          "internalType": "address",
          "name": "_stablecoin",
          "type": "address"
        },
        {
          "internalType": "uint256",
          "name": "_investorStablePoolLiquidity",
          "type": "uint256"
        },
        {
          "internalType": "address",
          "name": "advisorStablePoolToken",
          "type": "address"
        }
      ],
      "name": "redeemAmount",
      "outputs": [
        {
          "internalType": "uint256",
          "name": "",
          "type": "uint256"
        }
      ],
      "stateMutability": "nonpayable",
      "type": "function"
    },
    {
      "inputs": [],
      "name": "renounceOwnership",
      "outputs": [],
      "stateMutability": "nonpayable",
      "type": "function"
    },
    {
      "inputs": [
        {
          "internalType": "address",
          "name": "newOwner",
          "type": "address"
        }
      ],
      "name": "transferOwnership",
      "outputs": [],
      "stateMutability": "nonpayable",
      "type": "function"
    }
  ],
  "bytecode": "0x608060405234801561001057600080fd5b506117a2806100206000396000f3fe608060405234801561001057600080fd5b50600436106100625760003560e01c80635a4be73614610067578063715018a6146100f55780638a5c783e146100ff5780638da5cb5b14610201578063c4d66de814610235578063f2fde38b14610279575b600080fd5b6100f36004803603608081101561007d57600080fd5b81019080803573ffffffffffffffffffffffffffffffffffffffff169060200190929190803573ffffffffffffffffffffffffffffffffffffffff16906020019092919080359060200190929190803573ffffffffffffffffffffffffffffffffffffffff1690602001909291905050506102bd565b005b6100fd610403565b005b6101eb600480360360e081101561011557600080fd5b81019080803573ffffffffffffffffffffffffffffffffffffffff169060200190929190803573ffffffffffffffffffffffffffffffffffffffff169060200190929190803573ffffffffffffffffffffffffffffffffffffffff169060200190929190803573ffffffffffffffffffffffffffffffffffffffff169060200190929190803573ffffffffffffffffffffffffffffffffffffffff16906020019092919080359060200190929190803573ffffffffffffffffffffffffffffffffffffffff16906020019092919050505061058e565b6040518082815260200191505060405180910390f35b610209610996565b604051808273ffffffffffffffffffffffffffffffffffffffff16815260200191505060405180910390f35b6102776004803603602081101561024b57600080fd5b81019080803573ffffffffffffffffffffffffffffffffffffffff1690602001909291905050506109c0565b005b6102bb6004803603602081101561028f57600080fd5b81019080803573ffffffffffffffffffffffffffffffffffffffff169060200190929190505050610b13565b005b60008473ffffffffffffffffffffffffffffffffffffffff166340c10f1985856040518363ffffffff1660e01b8152600401808373ffffffffffffffffffffffffffffffffffffffff16815260200182815260200192505050602060405180830381600087803b15801561033057600080fd5b505af1158015610344573d6000803e3d6000fd5b505050506040513d602081101561035a57600080fd5b810190808051906020019092919050505090508173ffffffffffffffffffffffffffffffffffffffff1663a453b6cf826040518263ffffffff1660e01b815260040180828152602001915050602060405180830381600087803b1580156103c057600080fd5b505af11580156103d4573d6000803e3d6000fd5b505050506040513d60208110156103ea57600080fd5b8101908080519060200190929190505050505050505050565b61040b610d23565b73ffffffffffffffffffffffffffffffffffffffff16606560009054906101000a900473ffffffffffffffffffffffffffffffffffffffff1673ffffffffffffffffffffffffffffffffffffffff16146104cd576040517f08c379a00000000000000000000000000000000000000000000000000000000081526004018080602001828103825260208152602001807f4f776e61626c653a2063616c6c6572206973206e6f7420746865206f776e657281525060200191505060405180910390fd5b600073ffffffffffffffffffffffffffffffffffffffff16606560009054906101000a900473ffffffffffffffffffffffffffffffffffffffff1673ffffffffffffffffffffffffffffffffffffffff167f8be0079c531659141344cd1fd0a4f28419497f9722a3daafe3b4186f6b6457e060405160405180910390a36000606560006101000a81548173ffffffffffffffffffffffffffffffffffffffff021916908373ffffffffffffffffffffffffffffffffffffffff160217905550565b6000806000905060006106cb8773ffffffffffffffffffffffffffffffffffffffff16633ba0b9a96040518163ffffffff1660e01b815260040160206040518083038186803b1580156105e057600080fd5b505afa1580156105f4573d6000803e3d6000fd5b505050506040513d602081101561060a57600080fd5b81019080805190602001909291905050508873ffffffffffffffffffffffffffffffffffffffff16636009a2d8306040518263ffffffff1660e01b8152600401808273ffffffffffffffffffffffffffffffffffffffff16815260200191505060206040518083038186803b15801561068257600080fd5b505afa158015610696573d6000803e3d6000fd5b505050506040513d60208110156106ac57600080fd5b8101908080519060200190929190505050610d2b90919063ffffffff16565b905060008473ffffffffffffffffffffffffffffffffffffffff166318160ddd6040518163ffffffff1660e01b815260040160206040518083038186803b15801561071557600080fd5b505afa158015610729573d6000803e3d6000fd5b505050506040513d602081101561073f57600080fd5b8101908080519060200190929190505050905060006107678284610db190919063ffffffff16565b9050600061077e8289610d2b90919063ffffffff16565b90508a73ffffffffffffffffffffffffffffffffffffffff16631e9a69508a8c73ffffffffffffffffffffffffffffffffffffffff1663db006a75856040518263ffffffff1660e01b815260040180828152602001915050602060405180830381600087803b1580156107f057600080fd5b505af1158015610804573d6000803e3d6000fd5b505050506040513d602081101561081a57600080fd5b81019080805190602001909291905050506040518363ffffffff1660e01b8152600401808373ffffffffffffffffffffffffffffffffffffffff16815260200182815260200192505050602060405180830381600087803b15801561087e57600080fd5b505af1158015610892573d6000803e3d6000fd5b505050506040513d60208110156108a857600080fd5b810190808051906020019092919050505090508b73ffffffffffffffffffffffffffffffffffffffff168d73ffffffffffffffffffffffffffffffffffffffff1614610958576109156064610907600184610d2b90919063ffffffff16565b610db190919063ffffffff16565b945061092a8582610dfb90919063ffffffff16565b90506109578c868b73ffffffffffffffffffffffffffffffffffffffff16610e459092919063ffffffff16565b5b6109838d828b73ffffffffffffffffffffffffffffffffffffffff16610e459092919063ffffffff16565b8495505050505050979650505050505050565b6000606560009054906101000a900473ffffffffffffffffffffffffffffffffffffffff16905090565b600060019054906101000a900460ff16806109df57506109de610ee7565b5b806109f5575060008054906101000a900460ff16155b610a4a576040517f08c379a000000000000000000000000000000000000000000000000000000000815260040180806020018281038252602e815260200180611715602e913960400191505060405180910390fd5b60008060019054906101000a900460ff161590508015610a9a576001600060016101000a81548160ff02191690831515021790555060016000806101000a81548160ff0219169083151502179055505b610aa2610efe565b610aab82610b13565b3073ffffffffffffffffffffffffffffffffffffffff167f908408e307fc569b417f6cbec5d5a06f44a0a505ac0479b47d421a4b2fd6a1e660405160405180910390a28015610b0f5760008060016101000a81548160ff0219169083151502179055505b5050565b610b1b610d23565b73ffffffffffffffffffffffffffffffffffffffff16606560009054906101000a900473ffffffffffffffffffffffffffffffffffffffff1673ffffffffffffffffffffffffffffffffffffffff1614610bdd576040517f08c379a00000000000000000000000000000000000000000000000000000000081526004018080602001828103825260208152602001807f4f776e61626c653a2063616c6c6572206973206e6f7420746865206f776e657281525060200191505060405180910390fd5b600073ffffffffffffffffffffffffffffffffffffffff168173ffffffffffffffffffffffffffffffffffffffff161415610c63576040517f08c379a00000000000000000000000000000000000000000000000000000000081526004018080602001828103825260268152602001806116ce6026913960400191505060405180910390fd5b8073ffffffffffffffffffffffffffffffffffffffff16606560009054906101000a900473ffffffffffffffffffffffffffffffffffffffff1673ffffffffffffffffffffffffffffffffffffffff167f8be0079c531659141344cd1fd0a4f28419497f9722a3daafe3b4186f6b6457e060405160405180910390a380606560006101000a81548173ffffffffffffffffffffffffffffffffffffffff021916908373ffffffffffffffffffffffffffffffffffffffff16021790555050565b600033905090565b600080831415610d3e5760009050610dab565b6000828402905082848281610d4f57fe5b0414610da6576040517f08c379a00000000000000000000000000000000000000000000000000000000081526004018080602001828103825260218152602001806116f46021913960400191505060405180910390fd5b809150505b92915050565b6000610df383836040518060400160405280601a81526020017f536166654d6174683a206469766973696f6e206279207a65726f00000000000081525061100c565b905092915050565b6000610e3d83836040518060400160405280601e81526020017f536166654d6174683a207375627472616374696f6e206f766572666c6f7700008152506110d2565b905092915050565b610ee28363a9059cbb60e01b8484604051602401808373ffffffffffffffffffffffffffffffffffffffff16815260200182815260200192505050604051602081830303815290604052907bffffffffffffffffffffffffffffffffffffffffffffffffffffffff19166020820180517bffffffffffffffffffffffffffffffffffffffffffffffffffffffff8381831617835250505050611192565b505050565b6000803090506000813b9050600081149250505090565b600060019054906101000a900460ff1680610f1d5750610f1c610ee7565b5b80610f33575060008054906101000a900460ff16155b610f88576040517f08c379a000000000000000000000000000000000000000000000000000000000815260040180806020018281038252602e815260200180611715602e913960400191505060405180910390fd5b60008060019054906101000a900460ff161590508015610fd8576001600060016101000a81548160ff02191690831515021790555060016000806101000a81548160ff0219169083151502179055505b610fe06113dd565b610fe86114db565b80156110095760008060016101000a81548160ff0219169083151502179055505b50565b600080831182906110b8576040517f08c379a00000000000000000000000000000000000000000000000000000000081526004018080602001828103825283818151815260200191508051906020019080838360005b8381101561107d578082015181840152602081019050611062565b50505050905090810190601f1680156110aa5780820380516001836020036101000a031916815260200191505b509250505060405180910390fd5b5060008385816110c457fe5b049050809150509392505050565b600083831115829061117f576040517f08c379a00000000000000000000000000000000000000000000000000000000081526004018080602001828103825283818151815260200191508051906020019080838360005b83811015611144578082015181840152602081019050611129565b50505050905090810190601f1680156111715780820380516001836020036101000a031916815260200191505b509250505060405180910390fd5b5060008385039050809150509392505050565b6111b18273ffffffffffffffffffffffffffffffffffffffff16611682565b611223576040517f08c379a000000000000000000000000000000000000000000000000000000000815260040180806020018281038252601f8152602001807f5361666545524332303a2063616c6c20746f206e6f6e2d636f6e74726163740081525060200191505060405180910390fd5b600060608373ffffffffffffffffffffffffffffffffffffffff16836040518082805190602001908083835b60208310611272578051825260208201915060208101905060208303925061124f565b6001836020036101000a0380198251168184511680821785525050505050509050019150506000604051808303816000865af19150503d80600081146112d4576040519150601f19603f3d011682016040523d82523d6000602084013e6112d9565b606091505b509150915081611351576040517f08c379a00000000000000000000000000000000000000000000000000000000081526004018080602001828103825260208152602001807f5361666545524332303a206c6f772d6c6576656c2063616c6c206661696c656481525060200191505060405180910390fd5b6000815111156113d75780806020019051602081101561137057600080fd5b81019080805190602001909291905050506113d6576040517f08c379a000000000000000000000000000000000000000000000000000000000815260040180806020018281038252602a815260200180611743602a913960400191505060405180910390fd5b5b50505050565b600060019054906101000a900460ff16806113fc57506113fb610ee7565b5b80611412575060008054906101000a900460ff16155b611467576040517f08c379a000000000000000000000000000000000000000000000000000000000815260040180806020018281038252602e815260200180611715602e913960400191505060405180910390fd5b60008060019054906101000a900460ff1615905080156114b7576001600060016101000a81548160ff02191690831515021790555060016000806101000a81548160ff0219169083151502179055505b80156114d85760008060016101000a81548160ff0219169083151502179055505b50565b600060019054906101000a900460ff16806114fa57506114f9610ee7565b5b80611510575060008054906101000a900460ff16155b611565576040517f08c379a000000000000000000000000000000000000000000000000000000000815260040180806020018281038252602e815260200180611715602e913960400191505060405180910390fd5b60008060019054906101000a900460ff1615905080156115b5576001600060016101000a81548160ff02191690831515021790555060016000806101000a81548160ff0219169083151502179055505b60006115bf610d23565b905080606560006101000a81548173ffffffffffffffffffffffffffffffffffffffff021916908373ffffffffffffffffffffffffffffffffffffffff1602179055508073ffffffffffffffffffffffffffffffffffffffff16600073ffffffffffffffffffffffffffffffffffffffff167f8be0079c531659141344cd1fd0a4f28419497f9722a3daafe3b4186f6b6457e060405160405180910390a350801561167f5760008060016101000a81548160ff0219169083151502179055505b50565b60008060007fc5d2460186f7233c927e7db2dcc703c0e500b653ca82273b7bfad8045d85a47060001b9050833f91508082141580156116c457506000801b8214155b9250505091905056fe4f776e61626c653a206e6577206f776e657220697320746865207a65726f2061646472657373536166654d6174683a206d756c7469706c69636174696f6e206f766572666c6f77436f6e747261637420696e7374616e63652068617320616c7265616479206265656e20696e697469616c697a65645361666545524332303a204552433230206f7065726174696f6e20646964206e6f742073756363656564a26469706673582212201f6330b021b39551396b900ae92dd267eef196ab47735d27091e9f0cce8aa76f64736f6c634300060c0033",
  "compiler": {
    "name": "solc",
    "version": "0.6.12+commit.27d51765.Emscripten.clang",
    "optimizer": {
      "enabled": false,
      "runs": 200
    },
    "evmVersion": "petersburg"
  }
}