{
  "fileName": "VolatilePoolProxy.sol",
  "contractName": "VolatilePoolProxy",
  "source": "// SPDX-License-Identifier: Apache-2.0\n\npragma solidity ^0.6.0;\n\nimport \"@openzeppelin/contracts-ethereum-package/contracts/token/ERC20/SafeERC20.sol\";\nimport \"@openzeppelin/contracts-ethereum-package/contracts/Initializable.sol\";\nimport \"@openzeppelin/contracts-ethereum-package/contracts/access/Ownable.sol\";\n\ncontract Helper {\n    /**\n     * @dev get yearn vault address\n     */\n    function getETHVault() public pure returns (address ethVault) {\n        ethVault = 0xe1237aA7f535b0CC33Fd973D66cBf830354D16c7;\n    }\n\n    // creating this due to stack too deep error\n    function getUSDCVault() public pure returns (address usdcVault) {\n        usdcVault = 0x597aD1e0c13Bfe8025993D9e79C69E1c0233522e;\n    }\n}\n\ninterface YearnController {\n    function withdraw(address, uint256) external;\n\n    function balanceOf(address) external view returns (uint256);\n\n    function earn(address, uint256) external;\n}\n\n// NOTE - Was getting a file import issue so placed the interfaces here only for now\n// Yearn Interface\ninterface YearnVault {\n    // deposit for stable coins\n    function deposit(uint256 _amount) external;\n\n    function depositETH() external payable;\n\n    function withdrawETH(uint256 _shares) external payable;\n\n    function withdraw(uint256 _shares) external;\n\n    function balanceOf(address account) external view returns (uint256);\n\n    function balance() external view returns (uint256);\n\n    function totalSupply() external view returns (uint256);\n\n    function controller() external view returns (address);\n\n    function token() external view returns (address);\n\n    function getPricePerFullShare() external view returns (uint256);\n}\n\ncontract VolatilePoolProxy is Initializable, OwnableUpgradeSafe, Helper {\n    using SafeMath for uint256;\n    using SafeERC20 for IERC20;\n\n    event Initialized(address indexed thisAddress);\n\n    function initialize(address _advisor) public initializer {\n        OwnableUpgradeSafe.__Ownable_init();\n        OwnableUpgradeSafe.transferOwnership(_advisor);\n        emit Initialized(address(this));\n    }\n\n    /**\n        Investor deposits liquidity to advisor pools\n        @param stableAssetAmount stable asset amount.\n        @param volatileAssetAmount volatile asset amount.\n     */\n    function investYearn(uint256 stableAssetAmount, uint256 volatileAssetAmount)\n        external\n    {   require(volatileAssetAmount > 0 || stableAssetAmount > 0, \"Both Amounts cannot be 0\");\n        if (volatileAssetAmount > 0) {\n            YearnVault(getETHVault()).depositETH{value: volatileAssetAmount}();\n        }\n        // converting to usdc i.e 10**6 before depositing\n        if (stableAssetAmount > 0) {\n            YearnVault(getUSDCVault()).deposit(stableAssetAmount.div(10**12));\n        }\n    }\n\n\n\n    /**\n        Advisor redeems lquidity from the stable protocol\n        @param _investor investor address\n        @param _advisor advisor address\n        @param _stablecoin address of stable coin.\n        @param _investorVolatilePoolLiquidity volatile pool token balance of the investor.\n        @param advisorVolatilePoolToken address of advisors volatile pool token.\n        @param volatileProtocolStableCoinProportion stable coin proportion in volatile pool.\n        @param volatileProtocolVolatileCoinProportion volatile coin proportion in volatile pool.\n        // Reusing some vars due to stack too deep error\n     */\n  function redeemAmount(\n        address _investor,\n        address _advisor,\n        address _stablecoin,\n        uint256 _investorVolatilePoolLiquidity,\n        address advisorVolatilePoolToken,\n        uint256 volatileProtocolStableCoinProportion,\n        uint256 volatileProtocolVolatileCoinProportion\n    ) external returns (uint256) {\n        uint256 stableAssetFees = 0;\n        uint256 volatileAssetFees = 0;\n        uint256 investorRedeemAmount = 0;\n        require(\n            _investorVolatilePoolLiquidity > 0,\n            \"No Volatile Pool Liquidity\"\n        );\n        // had to reduce vars due to sol stack too deep error\n        // investor token share * pool token price\n        investorRedeemAmount = _investorVolatilePoolLiquidity\n            .mul(volatileProtocolVolatileCoinProportion)\n            .div(100)\n            .mul(\n            YearnVault(getETHVault()).balanceOf(address(this)).div(\n                IERC20(advisorVolatilePoolToken).totalSupply()\n            )\n        );\n        YearnVault(getETHVault()).withdrawETH(investorRedeemAmount);\n        // resassigning var to avoid stack too deep\n        _investorVolatilePoolLiquidity = getInvestorReturnAmount(\n            getETHVault(),\n            investorRedeemAmount\n        );\n        if (_investor != _advisor) {\n            // 1 % per investor\n            volatileAssetFees = (_investorVolatilePoolLiquidity.mul(1)).div(\n                100\n            );\n            _investorVolatilePoolLiquidity = _investorVolatilePoolLiquidity.sub(\n                volatileAssetFees\n            );\n            (bool ethTransferCheck, ) = _advisor.call{value: volatileAssetFees}(\n                \"\"\n            );\n            require(ethTransferCheck, \"Advisor Transfer failed.\");\n        }\n\n        (bool ethTransferCheck, ) = _investor.call{\n            value: _investorVolatilePoolLiquidity\n        }(\"\");\n        require(ethTransferCheck, \"Investor Transfer failed.\");\n        // get the yearn stable pool proportion set by advisor and get the invesors share based on it\n        investorRedeemAmount = _investorVolatilePoolLiquidity\n            .mul(volatileProtocolStableCoinProportion)\n            .div(100)\n            .mul(\n            (YearnVault(getUSDCVault()).balanceOf(address(this)).mul(10**12)).div(\n                IERC20(advisorVolatilePoolToken).totalSupply()\n            )\n        );\n        YearnVault(getUSDCVault()).withdraw(investorRedeemAmount.div(10**12));\n        // resassigning var to avoid stack too deep\n        _investorVolatilePoolLiquidity = getInvestorReturnAmount(\n            getUSDCVault(),\n            investorRedeemAmount\n        );\n        if (_investor != _advisor) {\n            // 1 % per investor\n            stableAssetFees = (_investorVolatilePoolLiquidity.mul(1)).div(100);\n            _investorVolatilePoolLiquidity = _investorVolatilePoolLiquidity.sub(\n                stableAssetFees\n            );\n            IERC20(_stablecoin).safeTransfer(_advisor, stableAssetFees);\n        }\n        IERC20(_stablecoin).safeTransfer(\n            _investor,\n            _investorVolatilePoolLiquidity\n        );\n\n        return (stableAssetFees.add(volatileAssetFees));\n    }\n\n    function getInvestorReturnAmount(\n        address _vault,\n        uint256 _investorRedeemAmount\n    ) internal returns (uint256) {\n        address controller = YearnVault(_vault).controller();\n        address token = YearnVault(_vault).token();\n        uint256 investorReturns = (\n            YearnVault(_vault).balance().mul(_investorRedeemAmount)\n        )\n            .div(YearnVault(_vault).totalSupply());\n\n        // Check balance\n        uint256 b = IERC20(token).balanceOf(address(this));\n        if (b < investorReturns) {\n            uint256 _withdraw = investorReturns.sub(b);\n            YearnController(controller).withdraw(address(token), _withdraw);\n            uint256 _after = IERC20(token).balanceOf(address(this));\n            uint256 _diff = _after.sub(b);\n            if (_diff < _withdraw) {\n                investorReturns = investorReturns.add(_diff);\n            }\n        }\n        return investorReturns;\n    }\n\n    receive() external payable {}\n}\n",
  "sourcePath": "contracts/proxy/VolatilePoolProxy.sol",
  "abi": [
    {
      "anonymous": false,
      "inputs": [
        {
          "indexed": true,
          "internalType": "address",
          "name": "thisAddress",
          "type": "address"
        }
      ],
      "name": "Initialized",
      "type": "event"
    },
    {
      "anonymous": false,
      "inputs": [
        {
          "indexed": true,
          "internalType": "address",
          "name": "previousOwner",
          "type": "address"
        },
        {
          "indexed": true,
          "internalType": "address",
          "name": "newOwner",
          "type": "address"
        }
      ],
      "name": "OwnershipTransferred",
      "type": "event"
    },
    {
      "inputs": [],
      "name": "getETHVault",
      "outputs": [
        {
          "internalType": "address",
          "name": "ethVault",
          "type": "address"
        }
      ],
      "stateMutability": "pure",
      "type": "function"
    },
    {
      "inputs": [],
      "name": "getUSDCVault",
      "outputs": [
        {
          "internalType": "address",
          "name": "usdcVault",
          "type": "address"
        }
      ],
      "stateMutability": "pure",
      "type": "function"
    },
    {
      "inputs": [
        {
          "internalType": "address",
          "name": "_advisor",
          "type": "address"
        }
      ],
      "name": "initialize",
      "outputs": [],
      "stateMutability": "nonpayable",
      "type": "function"
    },
    {
      "inputs": [
        {
          "internalType": "uint256",
          "name": "stableAssetAmount",
          "type": "uint256"
        },
        {
          "internalType": "uint256",
          "name": "volatileAssetAmount",
          "type": "uint256"
        }
      ],
      "name": "investYearn",
      "outputs": [],
      "stateMutability": "nonpayable",
      "type": "function"
    },
    {
      "inputs": [],
      "name": "owner",
      "outputs": [
        {
          "internalType": "address",
          "name": "",
          "type": "address"
        }
      ],
      "stateMutability": "view",
      "type": "function"
    },
    {
      "inputs": [
        {
          "internalType": "address",
          "name": "_investor",
          "type": "address"
        },
        {
          "internalType": "address",
          "name": "_advisor",
          "type": "address"
        },
        {
          "internalType": "address",
          "name": "_stablecoin",
          "type": "address"
        },
        {
          "internalType": "uint256",
          "name": "_investorVolatilePoolLiquidity",
          "type": "uint256"
        },
        {
          "internalType": "address",
          "name": "advisorVolatilePoolToken",
          "type": "address"
        },
        {
          "internalType": "uint256",
          "name": "volatileProtocolStableCoinProportion",
          "type": "uint256"
        },
        {
          "internalType": "uint256",
          "name": "volatileProtocolVolatileCoinProportion",
          "type": "uint256"
        }
      ],
      "name": "redeemAmount",
      "outputs": [
        {
          "internalType": "uint256",
          "name": "",
          "type": "uint256"
        }
      ],
      "stateMutability": "nonpayable",
      "type": "function"
    },
    {
      "inputs": [],
      "name": "renounceOwnership",
      "outputs": [],
      "stateMutability": "nonpayable",
      "type": "function"
    },
    {
      "inputs": [
        {
          "internalType": "address",
          "name": "newOwner",
          "type": "address"
        }
      ],
      "name": "transferOwnership",
      "outputs": [],
      "stateMutability": "nonpayable",
      "type": "function"
    },
    {
      "stateMutability": "payable",
      "type": "receive"
    }
  ],
  "bytecode": "0x608060405234801561001057600080fd5b50612135806100206000396000f3fe60806040526004361061007f5760003560e01c8063a58589411161004e578063a585894114610207578063c4d66de814610248578063d710d4c114610299578063f2fde38b146102de57610086565b806304e15c0a1461008b578063715018a6146100cc5780637f6f7509146100e35780638da5cb5b146101c657610086565b3661008657005b600080fd5b34801561009757600080fd5b506100a061032f565b604051808273ffffffffffffffffffffffffffffffffffffffff16815260200191505060405180910390f35b3480156100d857600080fd5b506100e161034b565b005b3480156100ef57600080fd5b506101b0600480360360e081101561010657600080fd5b81019080803573ffffffffffffffffffffffffffffffffffffffff169060200190929190803573ffffffffffffffffffffffffffffffffffffffff169060200190929190803573ffffffffffffffffffffffffffffffffffffffff16906020019092919080359060200190929190803573ffffffffffffffffffffffffffffffffffffffff16906020019092919080359060200190929190803590602001909291905050506104d6565b6040518082815260200191505060405180910390f35b3480156101d257600080fd5b506101db610c8d565b604051808273ffffffffffffffffffffffffffffffffffffffff16815260200191505060405180910390f35b34801561021357600080fd5b5061021c610cb7565b604051808273ffffffffffffffffffffffffffffffffffffffff16815260200191505060405180910390f35b34801561025457600080fd5b506102976004803603602081101561026b57600080fd5b81019080803573ffffffffffffffffffffffffffffffffffffffff169060200190929190505050610cd3565b005b3480156102a557600080fd5b506102dc600480360360408110156102bc57600080fd5b810190808035906020019092919080359060200190929190505050610e26565b005b3480156102ea57600080fd5b5061032d6004803603602081101561030157600080fd5b81019080803573ffffffffffffffffffffffffffffffffffffffff169060200190929190505050610fb0565b005b600073597ad1e0c13bfe8025993d9e79c69e1c0233522e905090565b6103536111c0565b73ffffffffffffffffffffffffffffffffffffffff16606560009054906101000a900473ffffffffffffffffffffffffffffffffffffffff1673ffffffffffffffffffffffffffffffffffffffff1614610415576040517f08c379a00000000000000000000000000000000000000000000000000000000081526004018080602001828103825260208152602001807f4f776e61626c653a2063616c6c6572206973206e6f7420746865206f776e657281525060200191505060405180910390fd5b600073ffffffffffffffffffffffffffffffffffffffff16606560009054906101000a900473ffffffffffffffffffffffffffffffffffffffff1673ffffffffffffffffffffffffffffffffffffffff167f8be0079c531659141344cd1fd0a4f28419497f9722a3daafe3b4186f6b6457e060405160405180910390a36000606560006101000a81548173ffffffffffffffffffffffffffffffffffffffff021916908373ffffffffffffffffffffffffffffffffffffffff160217905550565b6000806000905060008060008811610556576040517f08c379a000000000000000000000000000000000000000000000000000000000815260040180806020018281038252601a8152602001807f4e6f20566f6c6174696c6520506f6f6c204c697175696469747900000000000081525060200191505060405180910390fd5b6106c86106948873ffffffffffffffffffffffffffffffffffffffff166318160ddd6040518163ffffffff1660e01b815260040160206040518083038186803b1580156105a257600080fd5b505afa1580156105b6573d6000803e3d6000fd5b505050506040513d60208110156105cc57600080fd5b81019080805190602001909291905050506105e5610cb7565b73ffffffffffffffffffffffffffffffffffffffff166370a08231306040518263ffffffff1660e01b8152600401808273ffffffffffffffffffffffffffffffffffffffff16815260200191505060206040518083038186803b15801561064b57600080fd5b505afa15801561065f573d6000803e3d6000fd5b505050506040513d602081101561067557600080fd5b81019080805190602001909291905050506111c890919063ffffffff16565b6106ba60646106ac898d61121290919063ffffffff16565b6111c890919063ffffffff16565b61121290919063ffffffff16565b90506106d2610cb7565b73ffffffffffffffffffffffffffffffffffffffff1663f14210a6826040518263ffffffff1660e01b815260040180828152602001915050600060405180830381600087803b15801561072457600080fd5b505af1158015610738573d6000803e3d6000fd5b5050505061074d610747610cb7565b82611298565b97508973ffffffffffffffffffffffffffffffffffffffff168b73ffffffffffffffffffffffffffffffffffffffff161461089e576107a9606461079b60018b61121290919063ffffffff16565b6111c890919063ffffffff16565b91506107be828961170690919063ffffffff16565b975060008a73ffffffffffffffffffffffffffffffffffffffff168360405180600001905060006040518083038185875af1925050503d8060008114610820576040519150601f19603f3d011682016040523d82523d6000602084013e610825565b606091505b505090508061089c576040517f08c379a00000000000000000000000000000000000000000000000000000000081526004018080602001828103825260188152602001807f41647669736f72205472616e73666572206661696c65642e000000000000000081525060200191505060405180910390fd5b505b60008b73ffffffffffffffffffffffffffffffffffffffff168960405180600001905060006040518083038185875af1925050503d80600081146108fe576040519150601f19603f3d011682016040523d82523d6000602084013e610903565b606091505b505090508061097a576040517f08c379a00000000000000000000000000000000000000000000000000000000081526004018080602001828103825260198152602001807f496e766573746f72205472616e73666572206661696c65642e0000000000000081525060200191505060405180910390fd5b610b03610acf8973ffffffffffffffffffffffffffffffffffffffff166318160ddd6040518163ffffffff1660e01b815260040160206040518083038186803b1580156109c657600080fd5b505afa1580156109da573d6000803e3d6000fd5b505050506040513d60208110156109f057600080fd5b8101908080519060200190929190505050610ac164e8d4a51000610a1261032f565b73ffffffffffffffffffffffffffffffffffffffff166370a08231306040518263ffffffff1660e01b8152600401808273ffffffffffffffffffffffffffffffffffffffff16815260200191505060206040518083038186803b158015610a7857600080fd5b505afa158015610a8c573d6000803e3d6000fd5b505050506040513d6020811015610aa257600080fd5b810190808051906020019092919050505061121290919063ffffffff16565b6111c890919063ffffffff16565b610af56064610ae78b8e61121290919063ffffffff16565b6111c890919063ffffffff16565b61121290919063ffffffff16565b9150610b0d61032f565b73ffffffffffffffffffffffffffffffffffffffff16632e1a7d4d610b4064e8d4a51000856111c890919063ffffffff16565b6040518263ffffffff1660e01b815260040180828152602001915050600060405180830381600087803b158015610b7657600080fd5b505af1158015610b8a573d6000803e3d6000fd5b50505050610b9f610b9961032f565b83611298565b98508a73ffffffffffffffffffffffffffffffffffffffff168c73ffffffffffffffffffffffffffffffffffffffff1614610c3e57610bfb6064610bed60018c61121290919063ffffffff16565b6111c890919063ffffffff16565b9350610c10848a61170690919063ffffffff16565b9850610c3d8b858c73ffffffffffffffffffffffffffffffffffffffff166117509092919063ffffffff16565b5b610c698c8a8c73ffffffffffffffffffffffffffffffffffffffff166117509092919063ffffffff16565b610c7c83856117f290919063ffffffff16565b945050505050979650505050505050565b6000606560009054906101000a900473ffffffffffffffffffffffffffffffffffffffff16905090565b600073e1237aa7f535b0cc33fd973d66cbf830354d16c7905090565b600060019054906101000a900460ff1680610cf25750610cf161187a565b5b80610d08575060008054906101000a900460ff16155b610d5d576040517f08c379a000000000000000000000000000000000000000000000000000000000815260040180806020018281038252602e8152602001806120a8602e913960400191505060405180910390fd5b60008060019054906101000a900460ff161590508015610dad576001600060016101000a81548160ff02191690831515021790555060016000806101000a81548160ff0219169083151502179055505b610db5611891565b610dbe82610fb0565b3073ffffffffffffffffffffffffffffffffffffffff167f908408e307fc569b417f6cbec5d5a06f44a0a505ac0479b47d421a4b2fd6a1e660405160405180910390a28015610e225760008060016101000a81548160ff0219169083151502179055505b5050565b6000811180610e355750600082115b610ea7576040517f08c379a00000000000000000000000000000000000000000000000000000000081526004018080602001828103825260188152602001807f426f746820416d6f756e74732063616e6e6f742062652030000000000000000081525060200191505060405180910390fd5b6000811115610f1957610eb8610cb7565b73ffffffffffffffffffffffffffffffffffffffff1663f6326fb3826040518263ffffffff1660e01b81526004016000604051808303818588803b158015610eff57600080fd5b505af1158015610f13573d6000803e3d6000fd5b50505050505b6000821115610fac57610f2a61032f565b73ffffffffffffffffffffffffffffffffffffffff1663b6b55f25610f5d64e8d4a51000856111c890919063ffffffff16565b6040518263ffffffff1660e01b815260040180828152602001915050600060405180830381600087803b158015610f9357600080fd5b505af1158015610fa7573d6000803e3d6000fd5b505050505b5050565b610fb86111c0565b73ffffffffffffffffffffffffffffffffffffffff16606560009054906101000a900473ffffffffffffffffffffffffffffffffffffffff1673ffffffffffffffffffffffffffffffffffffffff161461107a576040517f08c379a00000000000000000000000000000000000000000000000000000000081526004018080602001828103825260208152602001807f4f776e61626c653a2063616c6c6572206973206e6f7420746865206f776e657281525060200191505060405180910390fd5b600073ffffffffffffffffffffffffffffffffffffffff168173ffffffffffffffffffffffffffffffffffffffff161415611100576040517f08c379a00000000000000000000000000000000000000000000000000000000081526004018080602001828103825260268152602001806120616026913960400191505060405180910390fd5b8073ffffffffffffffffffffffffffffffffffffffff16606560009054906101000a900473ffffffffffffffffffffffffffffffffffffffff1673ffffffffffffffffffffffffffffffffffffffff167f8be0079c531659141344cd1fd0a4f28419497f9722a3daafe3b4186f6b6457e060405160405180910390a380606560006101000a81548173ffffffffffffffffffffffffffffffffffffffff021916908373ffffffffffffffffffffffffffffffffffffffff16021790555050565b600033905090565b600061120a83836040518060400160405280601a81526020017f536166654d6174683a206469766973696f6e206279207a65726f00000000000081525061199f565b905092915050565b6000808314156112255760009050611292565b600082840290508284828161123657fe5b041461128d576040517f08c379a00000000000000000000000000000000000000000000000000000000081526004018080602001828103825260218152602001806120876021913960400191505060405180910390fd5b809150505b92915050565b6000808373ffffffffffffffffffffffffffffffffffffffff1663f77c47916040518163ffffffff1660e01b815260040160206040518083038186803b1580156112e157600080fd5b505afa1580156112f5573d6000803e3d6000fd5b505050506040513d602081101561130b57600080fd5b8101908080519060200190929190505050905060008473ffffffffffffffffffffffffffffffffffffffff1663fc0c546a6040518163ffffffff1660e01b815260040160206040518083038186803b15801561136657600080fd5b505afa15801561137a573d6000803e3d6000fd5b505050506040513d602081101561139057600080fd5b8101908080519060200190929190505050905060006114ca8673ffffffffffffffffffffffffffffffffffffffff166318160ddd6040518163ffffffff1660e01b815260040160206040518083038186803b1580156113ee57600080fd5b505afa158015611402573d6000803e3d6000fd5b505050506040513d602081101561141857600080fd5b81019080805190602001909291905050506114bc878973ffffffffffffffffffffffffffffffffffffffff1663b69ef8a86040518163ffffffff1660e01b815260040160206040518083038186803b15801561147357600080fd5b505afa158015611487573d6000803e3d6000fd5b505050506040513d602081101561149d57600080fd5b810190808051906020019092919050505061121290919063ffffffff16565b6111c890919063ffffffff16565b905060008273ffffffffffffffffffffffffffffffffffffffff166370a08231306040518263ffffffff1660e01b8152600401808273ffffffffffffffffffffffffffffffffffffffff16815260200191505060206040518083038186803b15801561153557600080fd5b505afa158015611549573d6000803e3d6000fd5b505050506040513d602081101561155f57600080fd5b81019080805190602001909291905050509050818110156116f957600061158f828461170690919063ffffffff16565b90508473ffffffffffffffffffffffffffffffffffffffff1663f3fef3a385836040518363ffffffff1660e01b8152600401808373ffffffffffffffffffffffffffffffffffffffff16815260200182815260200192505050600060405180830381600087803b15801561160257600080fd5b505af1158015611616573d6000803e3d6000fd5b5050505060008473ffffffffffffffffffffffffffffffffffffffff166370a08231306040518263ffffffff1660e01b8152600401808273ffffffffffffffffffffffffffffffffffffffff16815260200191505060206040518083038186803b15801561168357600080fd5b505afa158015611697573d6000803e3d6000fd5b505050506040513d60208110156116ad57600080fd5b8101908080519060200190929190505050905060006116d5848361170690919063ffffffff16565b9050828110156116f5576116f281866117f290919063ffffffff16565b94505b5050505b8194505050505092915050565b600061174883836040518060400160405280601e81526020017f536166654d6174683a207375627472616374696f6e206f766572666c6f770000815250611a65565b905092915050565b6117ed8363a9059cbb60e01b8484604051602401808373ffffffffffffffffffffffffffffffffffffffff16815260200182815260200192505050604051602081830303815290604052907bffffffffffffffffffffffffffffffffffffffffffffffffffffffff19166020820180517bffffffffffffffffffffffffffffffffffffffffffffffffffffffff8381831617835250505050611b25565b505050565b600080828401905083811015611870576040517f08c379a000000000000000000000000000000000000000000000000000000000815260040180806020018281038252601b8152602001807f536166654d6174683a206164646974696f6e206f766572666c6f77000000000081525060200191505060405180910390fd5b8091505092915050565b6000803090506000813b9050600081149250505090565b600060019054906101000a900460ff16806118b057506118af61187a565b5b806118c6575060008054906101000a900460ff16155b61191b576040517f08c379a000000000000000000000000000000000000000000000000000000000815260040180806020018281038252602e8152602001806120a8602e913960400191505060405180910390fd5b60008060019054906101000a900460ff16159050801561196b576001600060016101000a81548160ff02191690831515021790555060016000806101000a81548160ff0219169083151502179055505b611973611d70565b61197b611e6e565b801561199c5760008060016101000a81548160ff0219169083151502179055505b50565b60008083118290611a4b576040517f08c379a00000000000000000000000000000000000000000000000000000000081526004018080602001828103825283818151815260200191508051906020019080838360005b83811015611a105780820151818401526020810190506119f5565b50505050905090810190601f168015611a3d5780820380516001836020036101000a031916815260200191505b509250505060405180910390fd5b506000838581611a5757fe5b049050809150509392505050565b6000838311158290611b12576040517f08c379a00000000000000000000000000000000000000000000000000000000081526004018080602001828103825283818151815260200191508051906020019080838360005b83811015611ad7578082015181840152602081019050611abc565b50505050905090810190601f168015611b045780820380516001836020036101000a031916815260200191505b509250505060405180910390fd5b5060008385039050809150509392505050565b611b448273ffffffffffffffffffffffffffffffffffffffff16612015565b611bb6576040517f08c379a000000000000000000000000000000000000000000000000000000000815260040180806020018281038252601f8152602001807f5361666545524332303a2063616c6c20746f206e6f6e2d636f6e74726163740081525060200191505060405180910390fd5b600060608373ffffffffffffffffffffffffffffffffffffffff16836040518082805190602001908083835b60208310611c055780518252602082019150602081019050602083039250611be2565b6001836020036101000a0380198251168184511680821785525050505050509050019150506000604051808303816000865af19150503d8060008114611c67576040519150601f19603f3d011682016040523d82523d6000602084013e611c6c565b606091505b509150915081611ce4576040517f08c379a00000000000000000000000000000000000000000000000000000000081526004018080602001828103825260208152602001807f5361666545524332303a206c6f772d6c6576656c2063616c6c206661696c656481525060200191505060405180910390fd5b600081511115611d6a57808060200190516020811015611d0357600080fd5b8101908080519060200190929190505050611d69576040517f08c379a000000000000000000000000000000000000000000000000000000000815260040180806020018281038252602a8152602001806120d6602a913960400191505060405180910390fd5b5b50505050565b600060019054906101000a900460ff1680611d8f5750611d8e61187a565b5b80611da5575060008054906101000a900460ff16155b611dfa576040517f08c379a000000000000000000000000000000000000000000000000000000000815260040180806020018281038252602e8152602001806120a8602e913960400191505060405180910390fd5b60008060019054906101000a900460ff161590508015611e4a576001600060016101000a81548160ff02191690831515021790555060016000806101000a81548160ff0219169083151502179055505b8015611e6b5760008060016101000a81548160ff0219169083151502179055505b50565b600060019054906101000a900460ff1680611e8d5750611e8c61187a565b5b80611ea3575060008054906101000a900460ff16155b611ef8576040517f08c379a000000000000000000000000000000000000000000000000000000000815260040180806020018281038252602e8152602001806120a8602e913960400191505060405180910390fd5b60008060019054906101000a900460ff161590508015611f48576001600060016101000a81548160ff02191690831515021790555060016000806101000a81548160ff0219169083151502179055505b6000611f526111c0565b905080606560006101000a81548173ffffffffffffffffffffffffffffffffffffffff021916908373ffffffffffffffffffffffffffffffffffffffff1602179055508073ffffffffffffffffffffffffffffffffffffffff16600073ffffffffffffffffffffffffffffffffffffffff167f8be0079c531659141344cd1fd0a4f28419497f9722a3daafe3b4186f6b6457e060405160405180910390a35080156120125760008060016101000a81548160ff0219169083151502179055505b50565b60008060007fc5d2460186f7233c927e7db2dcc703c0e500b653ca82273b7bfad8045d85a47060001b9050833f915080821415801561205757506000801b8214155b9250505091905056fe4f776e61626c653a206e6577206f776e657220697320746865207a65726f2061646472657373536166654d6174683a206d756c7469706c69636174696f6e206f766572666c6f77436f6e747261637420696e7374616e63652068617320616c7265616479206265656e20696e697469616c697a65645361666545524332303a204552433230206f7065726174696f6e20646964206e6f742073756363656564a2646970667358221220098c0136eb3f94ddb34c4c9b4dbdd2a7d27ce53eaae745aaadff6af3605bb66f64736f6c634300060c0033",
  "compiler": {
    "name": "solc",
    "version": "0.6.12+commit.27d51765.Emscripten.clang",
    "optimizer": {
      "enabled": false,
      "runs": 200
    },
    "evmVersion": "petersburg"
  }
}